{
  "contractName": "ReferralRewardsType2",
  "abi": [
    {
      "inputs": [
        {
          "internalType": "contract dANT",
          "name": "_token",
          "type": "address"
        },
        {
          "internalType": "contract ReferralTree",
          "name": "_referralTree",
          "type": "address"
        },
        {
          "internalType": "contract Rewards",
          "name": "_rewards",
          "type": "address"
        },
        {
          "internalType": "uint256[3]",
          "name": "_depositBounds",
          "type": "uint256[3]"
        },
        {
          "internalType": "uint256[3][3]",
          "name": "_depositRate",
          "type": "uint256[3][3]"
        },
        {
          "internalType": "uint256[3][3]",
          "name": "_stakingRate",
          "type": "uint256[3][3]"
        }
      ],
      "stateMutability": "nonpayable",
      "type": "constructor"
    },
    {
      "anonymous": false,
      "inputs": [
        {
          "indexed": true,
          "internalType": "address",
          "name": "previousOwner",
          "type": "address"
        },
        {
          "indexed": true,
          "internalType": "address",
          "name": "newOwner",
          "type": "address"
        }
      ],
      "name": "OwnershipTransferred",
      "type": "event"
    },
    {
      "anonymous": false,
      "inputs": [
        {
          "indexed": true,
          "internalType": "address",
          "name": "refferer",
          "type": "address"
        },
        {
          "indexed": true,
          "internalType": "address",
          "name": "refferal",
          "type": "address"
        },
        {
          "indexed": true,
          "internalType": "uint256",
          "name": "level",
          "type": "uint256"
        },
        {
          "indexed": false,
          "internalType": "uint256",
          "name": "amount",
          "type": "uint256"
        }
      ],
      "name": "ReferralDepositReward",
      "type": "event"
    },
    {
      "anonymous": false,
      "inputs": [
        {
          "indexed": true,
          "internalType": "address",
          "name": "user",
          "type": "address"
        },
        {
          "indexed": false,
          "internalType": "uint256",
          "name": "amount",
          "type": "uint256"
        }
      ],
      "name": "ReferralRewardPaid",
      "type": "event"
    },
    {
      "inputs": [],
      "name": "amtLevels",
      "outputs": [
        {
          "internalType": "uint256",
          "name": "",
          "type": "uint256"
        }
      ],
      "stateMutability": "view",
      "type": "function"
    },
    {
      "inputs": [
        {
          "internalType": "address",
          "name": "_referral",
          "type": "address"
        }
      ],
      "name": "claimAllDividends",
      "outputs": [],
      "stateMutability": "nonpayable",
      "type": "function"
    },
    {
      "inputs": [],
      "name": "claimDividends",
      "outputs": [],
      "stateMutability": "nonpayable",
      "type": "function"
    },
    {
      "inputs": [
        {
          "internalType": "uint256",
          "name": "",
          "type": "uint256"
        }
      ],
      "name": "depositBounds",
      "outputs": [
        {
          "internalType": "uint256",
          "name": "",
          "type": "uint256"
        }
      ],
      "stateMutability": "view",
      "type": "function"
    },
    {
      "inputs": [
        {
          "internalType": "uint256",
          "name": "",
          "type": "uint256"
        },
        {
          "internalType": "uint256",
          "name": "",
          "type": "uint256"
        }
      ],
      "name": "depositRate",
      "outputs": [
        {
          "internalType": "uint256",
          "name": "",
          "type": "uint256"
        }
      ],
      "stateMutability": "view",
      "type": "function"
    },
    {
      "inputs": [],
      "name": "getDepositBounds",
      "outputs": [
        {
          "internalType": "uint256[3]",
          "name": "",
          "type": "uint256[3]"
        }
      ],
      "stateMutability": "view",
      "type": "function"
    },
    {
      "inputs": [
        {
          "internalType": "uint256[]",
          "name": "_referralStakes",
          "type": "uint256[]"
        }
      ],
      "name": "getDepositRate",
      "outputs": [
        {
          "internalType": "uint256[]",
          "name": "_rates",
          "type": "uint256[]"
        }
      ],
      "stateMutability": "view",
      "type": "function"
    },
    {
      "inputs": [],
      "name": "getDepositRates",
      "outputs": [
        {
          "internalType": "uint256[3][3]",
          "name": "",
          "type": "uint256[3][3]"
        }
      ],
      "stateMutability": "view",
      "type": "function"
    },
    {
      "inputs": [
        {
          "internalType": "address",
          "name": "_user",
          "type": "address"
        }
      ],
      "name": "getReferral",
      "outputs": [
        {
          "internalType": "address",
          "name": "",
          "type": "address"
        }
      ],
      "stateMutability": "view",
      "type": "function"
    },
    {
      "inputs": [
        {
          "internalType": "address",
          "name": "_user",
          "type": "address"
        }
      ],
      "name": "getReferralAmounts",
      "outputs": [
        {
          "internalType": "uint256[3]",
          "name": "",
          "type": "uint256[3]"
        }
      ],
      "stateMutability": "view",
      "type": "function"
    },
    {
      "inputs": [
        {
          "internalType": "uint256",
          "name": "_referralStake",
          "type": "uint256"
        }
      ],
      "name": "getStakingRateRange",
      "outputs": [
        {
          "internalType": "uint256[3]",
          "name": "_rates",
          "type": "uint256[3]"
        }
      ],
      "stateMutability": "view",
      "type": "function"
    },
    {
      "inputs": [],
      "name": "getStakingRates",
      "outputs": [
        {
          "internalType": "uint256[3][3]",
          "name": "",
          "type": "uint256[3][3]"
        }
      ],
      "stateMutability": "view",
      "type": "function"
    },
    {
      "inputs": [],
      "name": "owner",
      "outputs": [
        {
          "internalType": "address",
          "name": "",
          "type": "address"
        }
      ],
      "stateMutability": "view",
      "type": "function"
    },
    {
      "inputs": [],
      "name": "referDepth",
      "outputs": [
        {
          "internalType": "uint256",
          "name": "",
          "type": "uint256"
        }
      ],
      "stateMutability": "view",
      "type": "function"
    },
    {
      "inputs": [
        {
          "internalType": "address",
          "name": "",
          "type": "address"
        }
      ],
      "name": "referralReward",
      "outputs": [
        {
          "internalType": "uint256",
          "name": "reward",
          "type": "uint256"
        },
        {
          "internalType": "uint256",
          "name": "lastUpdate",
          "type": "uint256"
        },
        {
          "internalType": "uint256",
          "name": "depositHead",
          "type": "uint256"
        },
        {
          "internalType": "uint256",
          "name": "depositTail",
          "type": "uint256"
        }
      ],
      "stateMutability": "view",
      "type": "function"
    },
    {
      "inputs": [],
      "name": "referralTree",
      "outputs": [
        {
          "internalType": "contract ReferralTree",
          "name": "",
          "type": "address"
        }
      ],
      "stateMutability": "view",
      "type": "function"
    },
    {
      "inputs": [],
      "name": "renounceOwnership",
      "outputs": [],
      "stateMutability": "nonpayable",
      "type": "function"
    },
    {
      "inputs": [
        {
          "internalType": "uint256[3]",
          "name": "_depositBounds",
          "type": "uint256[3]"
        }
      ],
      "name": "setBounds",
      "outputs": [],
      "stateMutability": "nonpayable",
      "type": "function"
    },
    {
      "inputs": [
        {
          "internalType": "uint256[3][3]",
          "name": "_depositRate",
          "type": "uint256[3][3]"
        }
      ],
      "name": "setDepositRate",
      "outputs": [],
      "stateMutability": "nonpayable",
      "type": "function"
    },
    {
      "inputs": [
        {
          "internalType": "address",
          "name": "_referrer",
          "type": "address"
        },
        {
          "internalType": "address",
          "name": "_referral",
          "type": "address"
        }
      ],
      "name": "setReferral",
      "outputs": [],
      "stateMutability": "nonpayable",
      "type": "function"
    },
    {
      "inputs": [
        {
          "internalType": "uint256[3][3]",
          "name": "_stakingRate",
          "type": "uint256[3][3]"
        }
      ],
      "name": "setStakingRate",
      "outputs": [],
      "stateMutability": "nonpayable",
      "type": "function"
    },
    {
      "inputs": [
        {
          "internalType": "uint256",
          "name": "",
          "type": "uint256"
        },
        {
          "internalType": "uint256",
          "name": "",
          "type": "uint256"
        }
      ],
      "name": "stakingRate",
      "outputs": [
        {
          "internalType": "uint256",
          "name": "",
          "type": "uint256"
        }
      ],
      "stateMutability": "view",
      "type": "function"
    },
    {
      "inputs": [],
      "name": "token",
      "outputs": [
        {
          "internalType": "contract dANT",
          "name": "",
          "type": "address"
        }
      ],
      "stateMutability": "view",
      "type": "function"
    },
    {
      "inputs": [
        {
          "internalType": "address",
          "name": "newOwner",
          "type": "address"
        }
      ],
      "name": "transferOwnership",
      "outputs": [],
      "stateMutability": "nonpayable",
      "type": "function"
    },
    {
      "inputs": [
        {
          "internalType": "address",
          "name": "_referrer",
          "type": "address"
        },
        {
          "internalType": "uint256",
          "name": "_amount",
          "type": "uint256"
        }
      ],
      "name": "assessReferalDepositReward",
      "outputs": [],
      "stateMutability": "nonpayable",
      "type": "function"
    },
    {
      "inputs": [
        {
          "internalType": "address",
          "name": "_referrer",
          "type": "address"
        },
        {
          "internalType": "uint256",
          "name": "_amount",
          "type": "uint256"
        }
      ],
      "name": "removeDepositReward",
      "outputs": [],
      "stateMutability": "nonpayable",
      "type": "function"
    },
    {
      "inputs": [
        {
          "internalType": "address",
          "name": "_user",
          "type": "address"
        }
      ],
      "name": "getReferralReward",
      "outputs": [
        {
          "internalType": "uint256",
          "name": "",
          "type": "uint256"
        }
      ],
      "stateMutability": "view",
      "type": "function"
    }
  ],
  "bytecode": "0x60806040523480156200001157600080fd5b50604051620038293803806200382983398181016040526200003791908101906200052b565b85858585858560006200004f620001fe60201b60201c565b9050806000806101000a81548173ffffffffffffffffffffffffffffffffffffffff021916908373ffffffffffffffffffffffffffffffffffffffff1602179055508073ffffffffffffffffffffffffffffffffffffffff16600073ffffffffffffffffffffffffffffffffffffffff167f8be0079c531659141344cd1fd0a4f28419497f9722a3daafe3b4186f6b6457e060405160405180910390a35085600160006101000a81548173ffffffffffffffffffffffffffffffffffffffff021916908373ffffffffffffffffffffffffffffffffffffffff16021790555084600260006101000a81548173ffffffffffffffffffffffffffffffffffffffff021916908373ffffffffffffffffffffffffffffffffffffffff1602179055508260049060036200018292919062000206565b50816007906003620001969291906200024b565b50806010906003620001aa9291906200024b565b5083600360006101000a81548173ffffffffffffffffffffffffffffffffffffffff021916908373ffffffffffffffffffffffffffffffffffffffff1602179055505050505050505050505050506200073c565b600033905090565b826003810192821562000238579160200282015b82811115620002375782518255916020019190600101906200021a565b5b509050620002479190620002a2565b5090565b826003800281019282156200028f579160200282015b828111156200028e578251829060036200027d929190620002ca565b509160200191906003019062000261565b5b5090506200029e91906200030f565b5090565b620002c791905b80821115620002c3576000816000905550600101620002a9565b5090565b90565b8260038101928215620002fc579160200282015b82811115620002fb578251825591602001919060010190620002de565b5b5090506200030b9190620002a2565b5090565b6200033d91905b808211156200033957600081816200032f919062000340565b5060030162000316565b5090565b90565b50600081556001016000815560010160009055565b600082601f8301126200036757600080fd5b60036200037e6200037882620005f1565b620005c3565b915081838560608402820111156200039557600080fd5b60005b83811015620003c95781620003ae8882620003d3565b84526020840193506060830192505060018101905062000398565b5050505092915050565b600082601f830112620003e557600080fd5b6003620003fc620003f68262000614565b620005c3565b915081838560208402820111156200041357600080fd5b60005b838110156200044757816200042c888262000514565b84526020840193506020830192505060018101905062000416565b5050505092915050565b600082601f8301126200046357600080fd5b60036200047a620004748262000637565b620005c3565b915081838560208402820111156200049157600080fd5b60005b83811015620004c55781620004aa888262000514565b84526020840193506020830192505060018101905062000494565b5050505092915050565b600081519050620004e081620006d4565b92915050565b600081519050620004f781620006ee565b92915050565b6000815190506200050e8162000708565b92915050565b600081519050620005258162000722565b92915050565b60008060008060008061030087890312156200054657600080fd5b60006200055689828a01620004fd565b96505060206200056989828a01620004cf565b95505060406200057c89828a01620004e6565b94505060606200058f89828a0162000451565b93505060c0620005a289828a0162000355565b9250506101e0620005b689828a0162000355565b9150509295509295509295565b6000604051905081810181811067ffffffffffffffff82111715620005e757600080fd5b8060405250919050565b600067ffffffffffffffff8211156200060957600080fd5b602082029050919050565b600067ffffffffffffffff8211156200062c57600080fd5b602082029050919050565b600067ffffffffffffffff8211156200064f57600080fd5b602082029050919050565b60006200066782620006aa565b9050919050565b60006200067b826200065a565b9050919050565b60006200068f826200065a565b9050919050565b6000620006a3826200065a565b9050919050565b600073ffffffffffffffffffffffffffffffffffffffff82169050919050565b6000819050919050565b620006df816200066e565b8114620006eb57600080fd5b50565b620006f98162000682565b81146200070557600080fd5b50565b620007138162000696565b81146200071f57600080fd5b50565b6200072d81620006ca565b81146200073957600080fd5b50565b6130dd806200074c6000396000f3fe608060405234801561001057600080fd5b50600436106101a95760003560e01c8063715018a6116100f9578063ab4f7a7a11610097578063e7e2fe1911610071578063e7e2fe19146104bd578063f2fde38b146104db578063f3c13a12146104f7578063fc0c546a14610527576101a9565b8063ab4f7a7a14610455578063ad35710114610471578063c72b50fd146104a1576101a9565b80638da5cb5b116100d35780638da5cb5b146103a757806393af7adc146103c5578063a6a9fcfa146103f5578063a7749d1c14610425576101a9565b8063715018a6146103515780637543e3f01461035b578063767bd4ba14610377576101a9565b80633a294ba31161016657806353d4e7f51161014057806353d4e7f5146102d8578063668038e0146102f65780636dcc2b3a146103005780636e18b6db1461031e576101a9565b80633a294ba31461025c5780633b0f0f2f14610278578063414eff13146102a8576101a9565b80630b3cb9d2146101ae5780630d434226146101cc578063168b85cf146101e857806319aaff8614610204578063396fe62714610220578063397f66901461023e575b600080fd5b6101b6610545565b6040516101c39190612d92565b60405180910390f35b6101e660048036036101e191908101906125ac565b61054a565b005b61020260048036036101fd9190810190612653565b6107ab565b005b61021e6004803603610219919081019061251e565b610856565b005b61022861094a565b6040516102359190612c01565b60405180910390f35b6102466109cd565b6040516102539190612c5a565b60405180910390f35b61027660048036036102719190810190612629565b6109f3565b005b610292600480360361028d919081019061251e565b610a9e565b60405161029f9190612b94565b60405180910390f35b6102c260048036036102bd919081019061251e565b610b52565b6040516102cf9190612d92565b60405180910390f35b6102e0610df2565b6040516102ed9190612c01565b60405180910390f35b6102fe610e75565b005b610308610e80565b6040516103159190612d92565b60405180910390f35b6103386004803603610333919081019061251e565b610e85565b6040516103489493929190612dad565b60405180910390f35b610359610eb5565b005b61037560048036036103709190810190612570565b61100a565b005b610391600480360361038c91908101906126bd565b61112d565b60405161039e9190612d92565b60405180910390f35b6103af611145565b6040516103bc9190612b94565b60405180910390f35b6103df60048036036103da91908101906126bd565b61116e565b6040516103ec9190612c1d565b60405180910390f35b61040f600480360361040a919081019061251e565b611203565b60405161041c9190612c1d565b60405180910390f35b61043f600480360361043a919081019061267c565b6112d9565b60405161044c9190612c38565b60405180910390f35b61046f600480360361046a91908101906125ac565b6113b0565b005b61048b6004803603610486919081019061270f565b6116fa565b6040516104989190612d92565b60405180910390f35b6104bb60048036036104b69190810190612629565b611722565b005b6104c56117cd565b6040516104d29190612c1d565b60405180910390f35b6104f560048036036104f0919081019061251e565b611818565b005b610511600480360361050c919081019061270f565b6119dc565b60405161051e9190612d92565b60405180910390f35b61052f611a04565b60405161053c9190612c75565b60405180910390f35b600381565b600360009054906101000a900473ffffffffffffffffffffffffffffffffffffffff1673ffffffffffffffffffffffffffffffffffffffff163373ffffffffffffffffffffffffffffffffffffffff16146105da576040517f08c379a00000000000000000000000000000000000000000000000000000000081526004016105d190612cf2565b60405180910390fd5b6060600260009054906101000a900473ffffffffffffffffffffffffffffffffffffffff1673ffffffffffffffffffffffffffffffffffffffff166332a00d8e8460036040518363ffffffff1660e01b815260040161063a929190612bd8565b60006040518083038186803b15801561065257600080fd5b505afa158015610666573d6000803e3d6000fd5b505050506040513d6000823e3d601f19601f8201168201806040525061068f91908101906125e8565b905060008090505b81518110156107a557600073ffffffffffffffffffffffffffffffffffffffff168282815181106106c457fe5b602002602001015173ffffffffffffffffffffffffffffffffffffffff1614156106ed57610798565b6107098282815181106106fc57fe5b6020026020010151611a2a565b60006019600084848151811061071b57fe5b602002602001015173ffffffffffffffffffffffffffffffffffffffff1673ffffffffffffffffffffffffffffffffffffffff16815260200190815260200160002090506107828482600401846003811061077257fe5b0154611cd590919063ffffffff16565b81600401836003811061079157fe5b0181905550505b8080600101915050610697565b50505050565b6107b3611d1f565b73ffffffffffffffffffffffffffffffffffffffff166000809054906101000a900473ffffffffffffffffffffffffffffffffffffffff1673ffffffffffffffffffffffffffffffffffffffff1614610841576040517f08c379a000000000000000000000000000000000000000000000000000000000815260040161083890612d32565b60405180910390fd5b80600490600361085292919061208c565b5050565b600260009054906101000a900473ffffffffffffffffffffffffffffffffffffffff1673ffffffffffffffffffffffffffffffffffffffff163373ffffffffffffffffffffffffffffffffffffffff1614806108ff5750600360009054906101000a900473ffffffffffffffffffffffffffffffffffffffff1673ffffffffffffffffffffffffffffffffffffffff163373ffffffffffffffffffffffffffffffffffffffff16145b61093e576040517f08c379a000000000000000000000000000000000000000000000000000000000815260040161093590612d52565b60405180910390fd5b61094781611d27565b50565b6109526120cc565b6010600380602002604051908101604052809291906000905b828210156109c4578382600302016003806020026040519081016040528092919082600380156109b0576020028201915b81548152602001906001019080831161099c575b50505050508152602001906001019061096b565b50505050905090565b600260009054906101000a900473ffffffffffffffffffffffffffffffffffffffff1681565b6109fb611d1f565b73ffffffffffffffffffffffffffffffffffffffff166000809054906101000a900473ffffffffffffffffffffffffffffffffffffffff1673ffffffffffffffffffffffffffffffffffffffff1614610a89576040517f08c379a0000000000000000000000000000000000000000000000000000000008152600401610a8090612d32565b60405180910390fd5b806010906003610a9a9291906120f9565b5050565b6000600260009054906101000a900473ffffffffffffffffffffffffffffffffffffffff1673ffffffffffffffffffffffffffffffffffffffff16639ca423b3836040518263ffffffff1660e01b8152600401610afb9190612b94565b60206040518083038186803b158015610b1357600080fd5b505afa158015610b27573d6000803e3d6000fd5b505050506040513d601f19601f82011682018060405250610b4b9190810190612547565b9050919050565b600080601960008473ffffffffffffffffffffffffffffffffffffffff1673ffffffffffffffffffffffffffffffffffffffff16815260200190815260200160002090506000600360009054906101000a900473ffffffffffffffffffffffffffffffffffffffff1673ffffffffffffffffffffffffffffffffffffffff16634f41e95d6040518163ffffffff1660e01b815260040160206040518083038186803b158015610c0057600080fd5b505afa158015610c14573d6000803e3d6000fd5b505050506040513d601f19601f82011682018060405250610c3891908101906126e6565b90506000600360009054906101000a900473ffffffffffffffffffffffffffffffffffffffff1673ffffffffffffffffffffffffffffffffffffffff16631b1ace25866040518263ffffffff1660e01b8152600401610c979190612b94565b60206040518083038186803b158015610caf57600080fd5b505afa158015610cc3573d6000803e3d6000fd5b505050506040513d601f19601f82011682018060405250610ce791908101906126e6565b9050610cf1612149565b610cfa8261116e565b9050600084600001549050600085600101541115610dcb5760008090505b6003811015610dc957610dba610dab670de0b6b3a7640000610d9d868560038110610d3f57fe5b6020020151610d8f8a610d818d6004018960038110610d5a57fe5b0154610d738f6001015442611cd590919063ffffffff16565b611ec190919063ffffffff16565b611ec190919063ffffffff16565b611ec190919063ffffffff16565b611f3190919063ffffffff16565b83611f7b90919063ffffffff16565b91508080600101915050610d18565b505b610de6670de0b6b3a764000082611f3190919063ffffffff16565b95505050505050919050565b610dfa6120cc565b6007600380602002604051908101604052809291906000905b82821015610e6c57838260030201600380602002604051908101604052809291908260038015610e58576020028201915b815481526020019060010190808311610e44575b505050505081526020019060010190610e13565b50505050905090565b610e7e33611d27565b565b600381565b60196020528060005260406000206000915090508060000154908060010154908060020154908060030154905084565b610ebd611d1f565b73ffffffffffffffffffffffffffffffffffffffff166000809054906101000a900473ffffffffffffffffffffffffffffffffffffffff1673ffffffffffffffffffffffffffffffffffffffff1614610f4b576040517f08c379a0000000000000000000000000000000000000000000000000000000008152600401610f4290612d32565b60405180910390fd5b600073ffffffffffffffffffffffffffffffffffffffff166000809054906101000a900473ffffffffffffffffffffffffffffffffffffffff1673ffffffffffffffffffffffffffffffffffffffff167f8be0079c531659141344cd1fd0a4f28419497f9722a3daafe3b4186f6b6457e060405160405180910390a360008060006101000a81548173ffffffffffffffffffffffffffffffffffffffff021916908373ffffffffffffffffffffffffffffffffffffffff160217905550565b600360009054906101000a900473ffffffffffffffffffffffffffffffffffffffff1673ffffffffffffffffffffffffffffffffffffffff163373ffffffffffffffffffffffffffffffffffffffff161461109a576040517f08c379a000000000000000000000000000000000000000000000000000000000815260040161109190612d72565b60405180910390fd5b600260009054906101000a900473ffffffffffffffffffffffffffffffffffffffff1673ffffffffffffffffffffffffffffffffffffffff16637543e3f083836040518363ffffffff1660e01b81526004016110f7929190612baf565b600060405180830381600087803b15801561111157600080fd5b505af1158015611125573d6000803e3d6000fd5b505050505050565b6004816003811061113a57fe5b016000915090505481565b60008060009054906101000a900473ffffffffffffffffffffffffffffffffffffffff16905090565b611176612149565b60008090505b60038110156111fc576004816003811061119257fe5b015483106111ef57601081600381106111a757fe5b600302016003806020026040519081016040528092919082600380156111e2576020028201915b8154815260200190600101908083116111ce575b50505050509150506111fe565b808060010191505061117c565b505b919050565b61120b612149565b61121361216b565b601960008473ffffffffffffffffffffffffffffffffffffffff1673ffffffffffffffffffffffffffffffffffffffff1681526020019081526020016000206040518060a001604052908160008201548152602001600182015481526020016002820154815260200160038201548152602001600482016003806020026040519081016040528092919082600380156112c1576020028201915b8154815260200190600101908083116112ad575b50505050508152505090508060800151915050919050565b6060815160405190808252806020026020018201604052801561130b5781602001602082028038833980820191505090505b50905060008090505b82518110156113aa5760008090505b600381101561139c576004816003811061133957fe5b015484838151811061134757fe5b60200260200101511061138f576007816003811061136157fe5b60030201826003811061137057fe5b015483838151811061137e57fe5b60200260200101818152505061139c565b8080600101915050611323565b508080600101915050611314565b50919050565b600360009054906101000a900473ffffffffffffffffffffffffffffffffffffffff1673ffffffffffffffffffffffffffffffffffffffff163373ffffffffffffffffffffffffffffffffffffffff1614611440576040517f08c379a000000000000000000000000000000000000000000000000000000000815260040161143790612d72565b60405180910390fd5b6060600260009054906101000a900473ffffffffffffffffffffffffffffffffffffffff1673ffffffffffffffffffffffffffffffffffffffff166332a00d8e8460036040518363ffffffff1660e01b81526004016114a0929190612bd8565b60006040518083038186803b1580156114b857600080fd5b505afa1580156114cc573d6000803e3d6000fd5b505050506040513d6000823e3d601f19601f820116820180604052506114f591908101906125e8565b905060008090505b81518110156116f457600073ffffffffffffffffffffffffffffffffffffffff1682828151811061152a57fe5b602002602001015173ffffffffffffffffffffffffffffffffffffffff161415611553576116e7565b61156f82828151811061156257fe5b6020026020010151611a2a565b60006019600084848151811061158157fe5b602002602001015173ffffffffffffffffffffffffffffffffffffffff1673ffffffffffffffffffffffffffffffffffffffff16815260200190815260200160002090506040518060a001604052808673ffffffffffffffffffffffffffffffffffffffff16815260200183815260200185815260200160008152602001428152508160070160008360030154815260200190815260200160002060008201518160000160006101000a81548173ffffffffffffffffffffffffffffffffffffffff021916908373ffffffffffffffffffffffffffffffffffffffff160217905550602082015181600101556040820151816002015560608201518160030155608082015181600401559050506116b1848260040184600381106116a157fe5b0154611f7b90919063ffffffff16565b8160040183600381106116c057fe5b01819055506116dd60018260030154611f7b90919063ffffffff16565b8160030181905550505b80806001019150506114fd565b50505050565b6010826003811061170757fe5b60030201816003811061171657fe5b01600091509150505481565b61172a611d1f565b73ffffffffffffffffffffffffffffffffffffffff166000809054906101000a900473ffffffffffffffffffffffffffffffffffffffff1673ffffffffffffffffffffffffffffffffffffffff16146117b8576040517f08c379a00000000000000000000000000000000000000000000000000000000081526004016117af90612d32565b60405180910390fd5b8060079060036117c99291906120f9565b5050565b6117d5612149565b600460038060200260405190810160405280929190826003801561180e576020028201915b8154815260200190600101908083116117fa575b5050505050905090565b611820611d1f565b73ffffffffffffffffffffffffffffffffffffffff166000809054906101000a900473ffffffffffffffffffffffffffffffffffffffff1673ffffffffffffffffffffffffffffffffffffffff16146118ae576040517f08c379a00000000000000000000000000000000000000000000000000000000081526004016118a590612d32565b60405180910390fd5b600073ffffffffffffffffffffffffffffffffffffffff168173ffffffffffffffffffffffffffffffffffffffff16141561191e576040517f08c379a000000000000000000000000000000000000000000000000000000000815260040161191590612cb2565b60405180910390fd5b8073ffffffffffffffffffffffffffffffffffffffff166000809054906101000a900473ffffffffffffffffffffffffffffffffffffffff1673ffffffffffffffffffffffffffffffffffffffff167f8be0079c531659141344cd1fd0a4f28419497f9722a3daafe3b4186f6b6457e060405160405180910390a3806000806101000a81548173ffffffffffffffffffffffffffffffffffffffff021916908373ffffffffffffffffffffffffffffffffffffffff16021790555050565b600782600381106119e957fe5b6003020181600381106119f857fe5b01600091509150505481565b600160009054906101000a900473ffffffffffffffffffffffffffffffffffffffff1681565b6000601960008373ffffffffffffffffffffffffffffffffffffffff1673ffffffffffffffffffffffffffffffffffffffff168152602001908152602001600020905042816001015410611a7e5750611cd2565b6000600360009054906101000a900473ffffffffffffffffffffffffffffffffffffffff1673ffffffffffffffffffffffffffffffffffffffff16634f41e95d6040518163ffffffff1660e01b815260040160206040518083038186803b158015611ae857600080fd5b505afa158015611afc573d6000803e3d6000fd5b505050506040513d601f19601f82011682018060405250611b2091908101906126e6565b90506000600360009054906101000a900473ffffffffffffffffffffffffffffffffffffffff1673ffffffffffffffffffffffffffffffffffffffff16631b1ace25856040518263ffffffff1660e01b8152600401611b7f9190612b94565b60206040518083038186803b158015611b9757600080fd5b505afa158015611bab573d6000803e3d6000fd5b505050506040513d601f19601f82011682018060405250611bcf91908101906126e6565b9050611bd9612149565b611be28261116e565b9050600084600101541115611cc45760008090505b6003811015611cc2576000611c89670de0b6b3a7640000611c7b858560038110611c1d57fe5b6020020151611c6d89611c5f8c6004018960038110611c3857fe5b0154611c518e6001015442611cd590919063ffffffff16565b611ec190919063ffffffff16565b611ec190919063ffffffff16565b611ec190919063ffffffff16565b611f3190919063ffffffff16565b90506000811115611cb457611cab818760000154611f7b90919063ffffffff16565b86600001819055505b508080600101915050611bf7565b505b428460010181905550505050505b50565b6000611d1783836040518060400160405280601e81526020017f536166654d6174683a207375627472616374696f6e206f766572666c6f770000815250611fd0565b905092915050565b600033905090565b611d3081611a2a565b6000601960008373ffffffffffffffffffffffffffffffffffffffff1673ffffffffffffffffffffffffffffffffffffffff16815260200190815260200160002090506000611d94670de0b6b3a76400008360000154611f3190919063ffffffff16565b90506000811115611ebc576000611dbc670de0b6b3a764000083611ec190919063ffffffff16565b9050611dd5818460000154611cd590919063ffffffff16565b8360000181905550600160009054906101000a900473ffffffffffffffffffffffffffffffffffffffff1673ffffffffffffffffffffffffffffffffffffffff166340c10f1985846040518363ffffffff1660e01b8152600401611e3a929190612bd8565b600060405180830381600087803b158015611e5457600080fd5b505af1158015611e68573d6000803e3d6000fd5b505050508373ffffffffffffffffffffffffffffffffffffffff167f04b20935b234f45fda390d2df59d92b7bb8bed322d3bc8764e826cfff50007d583604051611eb29190612d92565b60405180910390a2505b505050565b600080831415611ed45760009050611f2b565b6000828402905082848281611ee557fe5b0414611f26576040517f08c379a0000000000000000000000000000000000000000000000000000000008152600401611f1d90612d12565b60405180910390fd5b809150505b92915050565b6000611f7383836040518060400160405280601a81526020017f536166654d6174683a206469766973696f6e206279207a65726f00000000000081525061202b565b905092915050565b600080828401905083811015611fc6576040517f08c379a0000000000000000000000000000000000000000000000000000000008152600401611fbd90612cd2565b60405180910390fd5b8091505092915050565b6000838311158290612018576040517f08c379a000000000000000000000000000000000000000000000000000000000815260040161200f9190612c90565b60405180910390fd5b5060008385039050809150509392505050565b60008083118290612072576040517f08c379a00000000000000000000000000000000000000000000000000000000081526004016120699190612c90565b60405180910390fd5b50600083858161207e57fe5b049050809150509392505050565b82600381019282156120bb579160200282015b828111156120ba57825182559160200191906001019061209f565b5b5090506120c891906121a0565b5090565b60405180606001604052806003905b6120e36121c5565b8152602001906001900390816120db5790505090565b82600380028101928215612138579160200282015b82811115612137578251829060036121279291906121e7565b509160200191906003019061210e565b5b5090506121459190612227565b5090565b6040518060600160405280600390602082028038833980820191505090505090565b6040518060a001604052806000815260200160008152602001600081526020016000815260200161219a6121c5565b81525090565b6121c291905b808211156121be5760008160009055506001016121a6565b5090565b90565b6040518060600160405280600390602082028038833980820191505090505090565b8260038101928215612216579160200282015b828111156122155782518255916020019190600101906121fa565b5b50905061222391906121a0565b5090565b61225091905b8082111561224c57600081816122439190612253565b5060030161222d565b5090565b90565b50600081556001016000815560010160009055565b60008135905061227781613079565b92915050565b60008151905061228c81613079565b92915050565b600082601f8301126122a357600080fd5b81516122b66122b182612e1f565b612df2565b915081818352602084019350602081019050838560208402820111156122db57600080fd5b60005b8381101561230b57816122f1888261227d565b8452602084019350602083019250506001810190506122de565b5050505092915050565b600082601f83011261232657600080fd5b600361233961233482612e47565b612df2565b9150818385606084028201111561234f57600080fd5b60005b8381101561237f57816123658882612389565b845260208401935060608301925050600181019050612352565b5050505092915050565b600082601f83011261239a57600080fd5b60036123ad6123a882612e69565b612df2565b915081838560208402820111156123c357600080fd5b60005b838110156123f357816123d988826124f4565b8452602084019350602083019250506001810190506123c6565b5050505092915050565b600082601f83011261240e57600080fd5b600361242161241c82612e8b565b612df2565b9150818385602084028201111561243757600080fd5b60005b83811015612467578161244d88826124f4565b84526020840193506020830192505060018101905061243a565b5050505092915050565b600082601f83011261248257600080fd5b813561249561249082612ead565b612df2565b915081818352602084019350602081019050838560208402820111156124ba57600080fd5b60005b838110156124ea57816124d088826124f4565b8452602084019350602083019250506001810190506124bd565b5050505092915050565b60008135905061250381613090565b92915050565b60008151905061251881613090565b92915050565b60006020828403121561253057600080fd5b600061253e84828501612268565b91505092915050565b60006020828403121561255957600080fd5b60006125678482850161227d565b91505092915050565b6000806040838503121561258357600080fd5b600061259185828601612268565b92505060206125a285828601612268565b9150509250929050565b600080604083850312156125bf57600080fd5b60006125cd85828601612268565b92505060206125de858286016124f4565b9150509250929050565b6000602082840312156125fa57600080fd5b600082015167ffffffffffffffff81111561261457600080fd5b61262084828501612292565b91505092915050565b6000610120828403121561263c57600080fd5b600061264a84828501612315565b91505092915050565b60006060828403121561266557600080fd5b6000612673848285016123fd565b91505092915050565b60006020828403121561268e57600080fd5b600082013567ffffffffffffffff8111156126a857600080fd5b6126b484828501612471565b91505092915050565b6000602082840312156126cf57600080fd5b60006126dd848285016124f4565b91505092915050565b6000602082840312156126f857600080fd5b600061270684828501612509565b91505092915050565b6000806040838503121561272257600080fd5b6000612730858286016124f4565b9250506020612741858286016124f4565b9150509250929050565b60006127578383612838565b60608301905092915050565b600061276f8383612b76565b60208301905092915050565b61278481612fb1565b82525050565b61279381612f03565b61279d8184612f6e565b92506127a882612ed5565b8060005b838110156127d95781516127c0878261274b565b96506127cb83612f3a565b9250506001810190506127ac565b505050505050565b6127ea81612f19565b6127f48184612f84565b92506127ff82612ee9565b8060005b838110156128305781516128178782612763565b965061282283612f54565b925050600181019050612803565b505050505050565b61284181612f0e565b61284b8184612f79565b925061285682612edf565b8060005b8381101561288757815161286e8782612763565b965061287983612f47565b92505060018101905061285a565b505050505050565b600061289a82612f24565b6128a48185612f8f565b93506128af83612ef3565b8060005b838110156128e05781516128c78882612763565b97506128d283612f61565b9250506001810190506128b3565b5085935050505092915050565b6128f681612fed565b82525050565b61290581613011565b82525050565b600061291682612f2f565b6129208185612fa0565b9350612930818560208601613035565b61293981613068565b840191505092915050565b6000612951602683612fa0565b91507f4f776e61626c653a206e6577206f776e657220697320746865207a65726f206160008301527f64647265737300000000000000000000000000000000000000000000000000006020830152604082019050919050565b60006129b7601b83612fa0565b91507f536166654d6174683a206164646974696f6e206f766572666c6f7700000000006000830152602082019050919050565b60006129f7601d83612fa0565b91507f72656d6f76654465706f7369745265776172643a2062616420726f6c650000006000830152602082019050919050565b6000612a37602183612fa0565b91507f536166654d6174683a206d756c7469706c69636174696f6e206f766572666c6f60008301527f77000000000000000000000000000000000000000000000000000000000000006020830152604082019050919050565b6000612a9d602083612fa0565b91507f4f776e61626c653a2063616c6c6572206973206e6f7420746865206f776e65726000830152602082019050919050565b6000612add601b83612fa0565b91507f636c61696d416c6c4469766964656e64733a2062616420726f6c6500000000006000830152602082019050919050565b6000612b1d602483612fa0565b91507f6173736573735265666572616c4465706f7369745265776172643a206261642060008301527f726f6c65000000000000000000000000000000000000000000000000000000006020830152604082019050919050565b612b7f81612fe3565b82525050565b612b8e81612fe3565b82525050565b6000602082019050612ba9600083018461277b565b92915050565b6000604082019050612bc4600083018561277b565b612bd1602083018461277b565b9392505050565b6000604082019050612bed600083018561277b565b612bfa6020830184612b85565b9392505050565b600061012082019050612c17600083018461278a565b92915050565b6000606082019050612c3260008301846127e1565b92915050565b60006020820190508181036000830152612c52818461288f565b905092915050565b6000602082019050612c6f60008301846128ed565b92915050565b6000602082019050612c8a60008301846128fc565b92915050565b60006020820190508181036000830152612caa818461290b565b905092915050565b60006020820190508181036000830152612ccb81612944565b9050919050565b60006020820190508181036000830152612ceb816129aa565b9050919050565b60006020820190508181036000830152612d0b816129ea565b9050919050565b60006020820190508181036000830152612d2b81612a2a565b9050919050565b60006020820190508181036000830152612d4b81612a90565b9050919050565b60006020820190508181036000830152612d6b81612ad0565b9050919050565b60006020820190508181036000830152612d8b81612b10565b9050919050565b6000602082019050612da76000830184612b85565b92915050565b6000608082019050612dc26000830187612b85565b612dcf6020830186612b85565b612ddc6040830185612b85565b612de96060830184612b85565b95945050505050565b6000604051905081810181811067ffffffffffffffff82111715612e1557600080fd5b8060405250919050565b600067ffffffffffffffff821115612e3657600080fd5b602082029050602081019050919050565b600067ffffffffffffffff821115612e5e57600080fd5b602082029050919050565b600067ffffffffffffffff821115612e8057600080fd5b602082029050919050565b600067ffffffffffffffff821115612ea257600080fd5b602082029050919050565b600067ffffffffffffffff821115612ec457600080fd5b602082029050602081019050919050565b6000819050919050565b6000819050919050565b6000819050919050565b6000819050602082019050919050565b600060039050919050565b600060039050919050565b600060039050919050565b600081519050919050565b600081519050919050565b6000602082019050919050565b6000602082019050919050565b6000602082019050919050565b6000602082019050919050565b600081905092915050565b600081905092915050565b600081905092915050565b600082825260208201905092915050565b600082825260208201905092915050565b6000612fbc82612fc3565b9050919050565b600073ffffffffffffffffffffffffffffffffffffffff82169050919050565b6000819050919050565b6000612ff882612fff565b9050919050565b600061300a82612fc3565b9050919050565b600061301c82613023565b9050919050565b600061302e82612fc3565b9050919050565b60005b83811015613053578082015181840152602081019050613038565b83811115613062576000848401525b50505050565b6000601f19601f8301169050919050565b61308281612fb1565b811461308d57600080fd5b50565b61309981612fe3565b81146130a457600080fd5b5056fea2646970667358221220585a27f0cc580232b3dc6551581b2ea6ec11c951272bbdd9945c30b6eade0fab64736f6c63430006020033",
  "source": "pragma solidity ^0.6.0;\npragma experimental ABIEncoderV2;\n\nimport \"./ReferralRewards.sol\";\n\ncontract ReferralRewardsType2 is ReferralRewards {\n    /// @dev Constructor that initializes the most important configurations.\n    /// @param _token Token to be staked and harvested.\n    /// @param _referralTree Contract with referral's tree.\n    /// @param _rewards Main farming contract.\n    /// @param _depositBounds Limits of referral's stake used to determine the referral rate.\n    /// @param _depositRate Referral rates based on referral's deplth and stake received from deposit.\n    /// @param _stakingRate Referral rates based on referral's deplth and stake received from staking.\n    constructor(\n        dANT _token,\n        ReferralTree _referralTree,\n        Rewards _rewards,\n        uint256[amtLevels] memory _depositBounds,\n        uint256[referDepth][amtLevels] memory _depositRate,\n        uint256[referDepth][amtLevels] memory _stakingRate\n    )\n        public\n        ReferralRewards(\n            _token,\n            _referralTree,\n            _rewards,\n            _depositBounds,\n            _depositRate,\n            _stakingRate\n        )\n    {}\n\n    /// @dev Allows the main farming contract to assess referral deposit rewards.\n    /// @param _referrer Address of the referred user.\n    /// @param _amount Amount of new deposit.\n    function assessReferalDepositReward(address _referrer, uint256 _amount)\n        external\n        override\n    {\n        require(\n            msg.sender == address(rewards),\n            \"assessReferalDepositReward: bad role\"\n        );\n        address[] memory referrals = referralTree.getReferrals(\n            _referrer,\n            referDepth\n        );\n        for (uint256 i = 0; i < referrals.length; i++) {\n            if (referrals[i] == address(0)) {\n                continue;\n            }\n            accumulateReward(referrals[i]);\n            ReferralInfo storage referralInfo = referralReward[referrals[i]];\n            referralInfo.deposits[referralInfo.depositTail] = DepositInfo({\n                referrer: _referrer,\n                depth: i,\n                amount: _amount,\n                lastUpdatedTime: now,\n                time: 0\n            });\n            referralInfo.amounts[i] = referralInfo.amounts[i].add(_amount);\n            referralInfo.depositTail = referralInfo.depositTail.add(1);\n        }\n    }\n\n    /// @dev Update the staking referral reward for _user.\n    /// @param _user Address of the referral.\n    function accumulateReward(address _user) internal override {\n        ReferralInfo storage referralInfo = referralReward[_user];\n        if (referralInfo.lastUpdate >= now) {\n            return;\n        }\n        uint256 rewardPerSec = rewards.rewardPerSec();\n        uint256 referralStake = rewards.getReferralStake(_user);\n        uint256[referDepth] memory rates = getStakingRateRange(referralStake);\n        if (referralInfo.lastUpdate > 0) {\n            for (uint256 i = 0; i < referralInfo.amounts.length; i++) {\n                uint256 reward = now\n                    .sub(referralInfo.lastUpdate)\n                    .mul(referralInfo.amounts[i])\n                    .mul(rewardPerSec)\n                    .mul(rates[i])\n                    .div(1e18);\n                if (reward > 0) {\n                    referralInfo.reward = referralInfo.reward.add(reward);\n                }\n            }\n        }\n        referralInfo.lastUpdate = now;\n    }\n\n    /// @dev Allows the main farming contract to decrement staked amount that generates reward to the referrals.\n    /// @param _referrer Address of the referrer.\n    /// @param _amount Ammount of tokens to be withdrawn by referrer.\n    function removeDepositReward(address _referrer, uint256 _amount)\n        external\n        override\n    {\n        require(\n            msg.sender == address(rewards),\n            \"removeDepositReward: bad role\"\n        );\n        address[] memory referrals = referralTree.getReferrals(\n            _referrer,\n            referDepth\n        );\n        for (uint256 i = 0; i < referrals.length; i++) {\n            if (referrals[i] == address(0)) {\n                continue;\n            }\n            accumulateReward(referrals[i]);\n            ReferralInfo storage referralInfo = referralReward[referrals[i]];\n            referralInfo.amounts[i] = referralInfo.amounts[i].sub(_amount);\n        }\n    }\n\n    /// @dev Returns referral reward.\n    /// @param _user Address of referral.\n    /// @return Referral reward.\n    function getReferralReward(address _user)\n        external\n        override\n        view\n        returns (uint256)\n    {\n        ReferralInfo storage referralInfo = referralReward[_user];\n        uint256 rewardPerSec = rewards.rewardPerSec();\n        uint256 referralStake = rewards.getReferralStake(_user);\n        uint256[referDepth] memory rates = getStakingRateRange(referralStake);\n        uint256 _reward = referralInfo.reward;\n        if (referralInfo.lastUpdate > 0) {\n            for (uint256 i = 0; i < referralInfo.amounts.length; i++) {\n                _reward = _reward.add(\n                    now\n                        .sub(referralInfo.lastUpdate)\n                        .mul(referralInfo.amounts[i])\n                        .mul(rewardPerSec)\n                        .mul(rates[i])\n                        .div(1e18)\n                );\n            }\n        }\n        return _reward.div(1e18);\n    }\n}\n",
  "sourcePath": "/Users/kstasi/Documents/side/dANT/contracts/ReferralRewardsType2.sol",
  "compiler": {
    "name": "solc",
    "version": "0.6.2+commit.bacdbe57.Emscripten.clang"
  },
  "schemaVersion": "3.3.3",
  "updatedAt": "2020-12-20T21:29:24.742Z",
  "devdoc": {
    "methods": {
      "assessReferalDepositReward(address,uint256)": {
        "details": "Allows the main farming contract to assess referral deposit rewards.",
        "params": {
          "_amount": "Amount of new deposit.",
          "_referrer": "Address of the referred user."
        }
      },
      "claimAllDividends(address)": {
        "details": "Allows a referral tree to claim all the dividends.",
        "params": {
          "_referral": "Address of user that claims his dividends."
        }
      },
      "claimDividends()": {
        "details": "Allows a user to claim his dividends."
      },
      "constructor": {
        "details": "Constructor that initializes the most important configurations.",
        "params": {
          "_depositBounds": "Limits of referral's stake used to determine the referral rate.",
          "_depositRate": "Referral rates based on referral's deplth and stake received from deposit.",
          "_referralTree": "Contract with referral's tree.",
          "_rewards": "Main farming contract.",
          "_stakingRate": "Referral rates based on referral's deplth and stake received from staking.",
          "_token": "Token to be staked and harvested."
        }
      },
      "getDepositBounds()": {
        "details": "Returns limits of referral's stake used to determine the referral rate.",
        "returns": {
          "_0": "Array of deposit bounds."
        }
      },
      "getDepositRate(uint256[])": {
        "details": "Returns deposit rate based on the spesific referral stake and referral level.",
        "params": {
          "_referralStakes": "Amounts staked by referrals."
        },
        "returns": {
          "_rates": "Array of deposit rates by referral level."
        }
      },
      "getDepositRates()": {
        "details": "Returns referral rates based on referral's deplth and stake received from deposit.",
        "returns": {
          "_0": "Array of deposit rates."
        }
      },
      "getReferral(address)": {
        "details": "Returns direct user referral.",
        "params": {
          "_user": "Address of referrer."
        },
        "returns": {
          "_0": "Direct user referral."
        }
      },
      "getReferralAmounts(address)": {
        "details": "Returns amounts that generate reward for referral bu levels.",
        "params": {
          "_user": "Address of referral."
        },
        "returns": {
          "_0": "Returns amounts that generate reward for referral bu levels."
        }
      },
      "getReferralReward(address)": {
        "details": "Returns referral reward.",
        "params": {
          "_user": "Address of referral."
        },
        "returns": {
          "_0": "Referral reward."
        }
      },
      "getStakingRateRange(uint256)": {
        "details": "Returns stakong rate for the spesific referral stake.",
        "params": {
          "_referralStake": "Amount staked by referral."
        },
        "returns": {
          "_rates": "Array of stakong rates by referral level."
        }
      },
      "getStakingRates()": {
        "details": "Returns referral rates based on referral's deplth and stake received from staking.",
        "returns": {
          "_0": "Array of staking rates."
        }
      },
      "owner()": {
        "details": "Returns the address of the current owner."
      },
      "removeDepositReward(address,uint256)": {
        "details": "Allows the main farming contract to decrement staked amount that generates reward to the referrals.",
        "params": {
          "_amount": "Ammount of tokens to be withdrawn by referrer.",
          "_referrer": "Address of the referrer."
        }
      },
      "renounceOwnership()": {
        "details": "Leaves the contract without owner. It will not be possible to call `onlyOwner` functions anymore. Can only be called by the current owner.     * NOTE: Renouncing ownership will leave the contract without an owner, thereby removing any functionality that is only available to the owner."
      },
      "setBounds(uint256[3])": {
        "details": "Allows an owner to update bounds.",
        "params": {
          "_depositBounds": "Limits of referral's stake used to determine the referral rate."
        }
      },
      "setDepositRate(uint256[3][3])": {
        "details": "Allows an owner to update deposit rates.",
        "params": {
          "_depositRate": "Referral rates based on referral's deplth and stake received from deposit."
        }
      },
      "setReferral(address,address)": {
        "details": "Allows a farming contract to set user referral.",
        "params": {
          "_referral": "Address of the refferal.",
          "_referrer": "Address of the referred user."
        }
      },
      "setStakingRate(uint256[3][3])": {
        "details": "Allows an owner to update staking rates.",
        "params": {
          "_stakingRate": "Referral rates based on referral's deplth and stake received from staking."
        }
      },
      "transferOwnership(address)": {
        "details": "Transfers ownership of the contract to a new account (`newOwner`). Can only be called by the current owner."
      }
    }
  },
  "userdoc": {
    "methods": {}
  }
}