{
  "contractName": "ReferralTree",
  "abi": [
    {
      "inputs": [
        {
          "internalType": "address",
          "name": "_treeRoot",
          "type": "address"
        }
      ],
      "stateMutability": "nonpayable",
      "type": "constructor"
    },
    {
      "anonymous": false,
      "inputs": [
        {
          "indexed": true,
          "internalType": "address",
          "name": "referrer",
          "type": "address"
        },
        {
          "indexed": true,
          "internalType": "address",
          "name": "referral",
          "type": "address"
        }
      ],
      "name": "ReferralAdded",
      "type": "event"
    },
    {
      "anonymous": false,
      "inputs": [
        {
          "indexed": true,
          "internalType": "bytes32",
          "name": "role",
          "type": "bytes32"
        },
        {
          "indexed": true,
          "internalType": "bytes32",
          "name": "previousAdminRole",
          "type": "bytes32"
        },
        {
          "indexed": true,
          "internalType": "bytes32",
          "name": "newAdminRole",
          "type": "bytes32"
        }
      ],
      "name": "RoleAdminChanged",
      "type": "event"
    },
    {
      "anonymous": false,
      "inputs": [
        {
          "indexed": true,
          "internalType": "bytes32",
          "name": "role",
          "type": "bytes32"
        },
        {
          "indexed": true,
          "internalType": "address",
          "name": "account",
          "type": "address"
        },
        {
          "indexed": true,
          "internalType": "address",
          "name": "sender",
          "type": "address"
        }
      ],
      "name": "RoleGranted",
      "type": "event"
    },
    {
      "anonymous": false,
      "inputs": [
        {
          "indexed": true,
          "internalType": "bytes32",
          "name": "role",
          "type": "bytes32"
        },
        {
          "indexed": true,
          "internalType": "address",
          "name": "account",
          "type": "address"
        },
        {
          "indexed": true,
          "internalType": "address",
          "name": "sender",
          "type": "address"
        }
      ],
      "name": "RoleRevoked",
      "type": "event"
    },
    {
      "inputs": [],
      "name": "DEFAULT_ADMIN_ROLE",
      "outputs": [
        {
          "internalType": "bytes32",
          "name": "",
          "type": "bytes32"
        }
      ],
      "stateMutability": "view",
      "type": "function",
      "constant": true
    },
    {
      "inputs": [],
      "name": "REWARDS_ROLE",
      "outputs": [
        {
          "internalType": "bytes32",
          "name": "",
          "type": "bytes32"
        }
      ],
      "stateMutability": "view",
      "type": "function",
      "constant": true
    },
    {
      "inputs": [
        {
          "internalType": "bytes32",
          "name": "role",
          "type": "bytes32"
        }
      ],
      "name": "getRoleAdmin",
      "outputs": [
        {
          "internalType": "bytes32",
          "name": "",
          "type": "bytes32"
        }
      ],
      "stateMutability": "view",
      "type": "function",
      "constant": true
    },
    {
      "inputs": [
        {
          "internalType": "bytes32",
          "name": "role",
          "type": "bytes32"
        },
        {
          "internalType": "uint256",
          "name": "index",
          "type": "uint256"
        }
      ],
      "name": "getRoleMember",
      "outputs": [
        {
          "internalType": "address",
          "name": "",
          "type": "address"
        }
      ],
      "stateMutability": "view",
      "type": "function",
      "constant": true
    },
    {
      "inputs": [
        {
          "internalType": "bytes32",
          "name": "role",
          "type": "bytes32"
        }
      ],
      "name": "getRoleMemberCount",
      "outputs": [
        {
          "internalType": "uint256",
          "name": "",
          "type": "uint256"
        }
      ],
      "stateMutability": "view",
      "type": "function",
      "constant": true
    },
    {
      "inputs": [
        {
          "internalType": "bytes32",
          "name": "role",
          "type": "bytes32"
        },
        {
          "internalType": "address",
          "name": "account",
          "type": "address"
        }
      ],
      "name": "grantRole",
      "outputs": [],
      "stateMutability": "nonpayable",
      "type": "function"
    },
    {
      "inputs": [
        {
          "internalType": "bytes32",
          "name": "role",
          "type": "bytes32"
        },
        {
          "internalType": "address",
          "name": "account",
          "type": "address"
        }
      ],
      "name": "hasRole",
      "outputs": [
        {
          "internalType": "bool",
          "name": "",
          "type": "bool"
        }
      ],
      "stateMutability": "view",
      "type": "function",
      "constant": true
    },
    {
      "inputs": [
        {
          "internalType": "uint256",
          "name": "",
          "type": "uint256"
        }
      ],
      "name": "referralRewards",
      "outputs": [
        {
          "internalType": "contract ReferralRewards",
          "name": "",
          "type": "address"
        }
      ],
      "stateMutability": "view",
      "type": "function",
      "constant": true
    },
    {
      "inputs": [
        {
          "internalType": "address",
          "name": "",
          "type": "address"
        }
      ],
      "name": "referrals",
      "outputs": [
        {
          "internalType": "address",
          "name": "",
          "type": "address"
        }
      ],
      "stateMutability": "view",
      "type": "function",
      "constant": true
    },
    {
      "inputs": [
        {
          "internalType": "address",
          "name": "",
          "type": "address"
        },
        {
          "internalType": "uint256",
          "name": "",
          "type": "uint256"
        }
      ],
      "name": "referrers",
      "outputs": [
        {
          "internalType": "address",
          "name": "",
          "type": "address"
        }
      ],
      "stateMutability": "view",
      "type": "function",
      "constant": true
    },
    {
      "inputs": [
        {
          "internalType": "address",
          "name": "",
          "type": "address"
        }
      ],
      "name": "registered",
      "outputs": [
        {
          "internalType": "bool",
          "name": "",
          "type": "bool"
        }
      ],
      "stateMutability": "view",
      "type": "function",
      "constant": true
    },
    {
      "inputs": [
        {
          "internalType": "bytes32",
          "name": "role",
          "type": "bytes32"
        },
        {
          "internalType": "address",
          "name": "account",
          "type": "address"
        }
      ],
      "name": "renounceRole",
      "outputs": [],
      "stateMutability": "nonpayable",
      "type": "function"
    },
    {
      "inputs": [
        {
          "internalType": "bytes32",
          "name": "role",
          "type": "bytes32"
        },
        {
          "internalType": "address",
          "name": "account",
          "type": "address"
        }
      ],
      "name": "revokeRole",
      "outputs": [],
      "stateMutability": "nonpayable",
      "type": "function"
    },
    {
      "inputs": [],
      "name": "treeRoot",
      "outputs": [
        {
          "internalType": "address",
          "name": "",
          "type": "address"
        }
      ],
      "stateMutability": "view",
      "type": "function",
      "constant": true
    },
    {
      "inputs": [
        {
          "internalType": "address",
          "name": "_newAdmin",
          "type": "address"
        }
      ],
      "name": "changeAdmin",
      "outputs": [],
      "stateMutability": "nonpayable",
      "type": "function"
    },
    {
      "inputs": [
        {
          "internalType": "address",
          "name": "_referrer",
          "type": "address"
        },
        {
          "internalType": "address",
          "name": "_referral",
          "type": "address"
        }
      ],
      "name": "setReferral",
      "outputs": [],
      "stateMutability": "nonpayable",
      "type": "function"
    },
    {
      "inputs": [
        {
          "internalType": "contract ReferralRewards",
          "name": "_referralRewards",
          "type": "address"
        }
      ],
      "name": "removeReferralReward",
      "outputs": [],
      "stateMutability": "nonpayable",
      "type": "function"
    },
    {
      "inputs": [
        {
          "internalType": "contract ReferralRewards",
          "name": "_referralRewards",
          "type": "address"
        }
      ],
      "name": "addReferralReward",
      "outputs": [],
      "stateMutability": "nonpayable",
      "type": "function"
    },
    {
      "inputs": [],
      "name": "claimAllDividends",
      "outputs": [],
      "stateMutability": "nonpayable",
      "type": "function"
    },
    {
      "inputs": [
        {
          "internalType": "address",
          "name": "_referrer",
          "type": "address"
        },
        {
          "internalType": "uint256",
          "name": "_referDepth",
          "type": "uint256"
        }
      ],
      "name": "getReferrals",
      "outputs": [
        {
          "internalType": "address[]",
          "name": "",
          "type": "address[]"
        }
      ],
      "stateMutability": "view",
      "type": "function",
      "constant": true
    },
    {
      "inputs": [
        {
          "internalType": "address",
          "name": "_referral",
          "type": "address"
        }
      ],
      "name": "getReferrers",
      "outputs": [
        {
          "internalType": "address[]",
          "name": "",
          "type": "address[]"
        }
      ],
      "stateMutability": "view",
      "type": "function",
      "constant": true
    },
    {
      "inputs": [
        {
          "internalType": "address",
          "name": "_user",
          "type": "address"
        }
      ],
      "name": "getUserReferralReward",
      "outputs": [
        {
          "internalType": "uint256",
          "name": "",
          "type": "uint256"
        }
      ],
      "stateMutability": "view",
      "type": "function",
      "constant": true
    },
    {
      "inputs": [],
      "name": "getReferralRewards",
      "outputs": [
        {
          "internalType": "contract ReferralRewards[]",
          "name": "",
          "type": "address[]"
        }
      ],
      "stateMutability": "view",
      "type": "function",
      "constant": true
    }
  ],
  "bytecode": "0x60806040523480156200001157600080fd5b50604051620022b9380380620022b9833981810160405260208110156200003757600080fd5b810190808051906020019092919050505080600560006101000a81548173ffffffffffffffffffffffffffffffffffffffff021916908373ffffffffffffffffffffffffffffffffffffffff1602179055506001600260008373ffffffffffffffffffffffffffffffffffffffff1673ffffffffffffffffffffffffffffffffffffffff16815260200190815260200160002060006101000a81548160ff021916908315150217905550620001056000801b620000f96200010c60201b60201c565b6200011460201b60201c565b50620002a2565b600033905090565b6200012682826200012a60201b60201c565b5050565b6200015881600080858152602001908152602001600020600001620001cd60201b62001c8e1790919060201c565b15620001c9576200016e6200010c60201b60201c565b73ffffffffffffffffffffffffffffffffffffffff168173ffffffffffffffffffffffffffffffffffffffff16837f2f8788117e7eff1d82e926ec794901d17c78024a50270940304540a733656f0d60405160405180910390a45b5050565b6000620001fd836000018373ffffffffffffffffffffffffffffffffffffffff1660001b6200020560201b60201c565b905092915050565b60006200021983836200027f60201b60201c565b6200027457826000018290806001815401808255809150506001900390600052602060002001600090919091909150558260000180549050836001016000848152602001908152602001600020819055506001905062000279565b600090505b92915050565b600080836001016000848152602001908152602001600020541415905092915050565b61200780620002b26000396000f3fe608060405234801561001057600080fd5b506004361061014d5760003560e01c80639010d07c116100c3578063ca15c8731161007c578063ca15c87314610743578063ca4fb87c14610785578063cdf866fd146107a3578063d547741f14610802578063df65845a14610850578063eefb6f0a146108e95761014d565b80639010d07c146104d957806391d14854146105515780639ca423b3146105b7578063a217fddf1461063b578063b2dd5c0714610659578063c73e293b146106b55761014d565b806332a00d8e1161011557806332a00d8e146102c857806336568abe1461036b5780634b6d10b9146103b95780637543e3f01461042757806381c369da1461048b5780638f283970146104955761014d565b8063144c564e1461015257806314dc6c14146101aa57806316a5424b146101f4578063248a9ca3146102385780632f2ff15d1461027a575b600080fd5b6101946004803603602081101561016857600080fd5b81019080803573ffffffffffffffffffffffffffffffffffffffff16906020019092919050505061092d565b6040518082815260200191505060405180910390f35b6101b2610a67565b604051808273ffffffffffffffffffffffffffffffffffffffff1673ffffffffffffffffffffffffffffffffffffffff16815260200191505060405180910390f35b6102366004803603602081101561020a57600080fd5b81019080803573ffffffffffffffffffffffffffffffffffffffff169060200190929190505050610a8d565b005b6102646004803603602081101561024e57600080fd5b8101908080359060200190929190505050610cc9565b6040518082815260200191505060405180910390f35b6102c66004803603604081101561029057600080fd5b8101908080359060200190929190803573ffffffffffffffffffffffffffffffffffffffff169060200190929190505050610ce8565b005b610314600480360360408110156102de57600080fd5b81019080803573ffffffffffffffffffffffffffffffffffffffff16906020019092919080359060200190929190505050610d71565b6040518080602001828103825283818151815260200191508051906020019060200280838360005b8381101561035757808201518184015260208101905061033c565b505050509050019250505060405180910390f35b6103b76004803603604081101561038157600080fd5b8101908080359060200190929190803573ffffffffffffffffffffffffffffffffffffffff169060200190929190505050610e8e565b005b6103e5600480360360208110156103cf57600080fd5b8101908080359060200190929190505050610f27565b604051808273ffffffffffffffffffffffffffffffffffffffff1673ffffffffffffffffffffffffffffffffffffffff16815260200191505060405180910390f35b6104896004803603604081101561043d57600080fd5b81019080803573ffffffffffffffffffffffffffffffffffffffff169060200190929190803573ffffffffffffffffffffffffffffffffffffffff169060200190929190505050610f63565b005b610493611386565b005b6104d7600480360360208110156104ab57600080fd5b81019080803573ffffffffffffffffffffffffffffffffffffffff16906020019092919050505061154c565b005b61050f600480360360408110156104ef57600080fd5b8101908080359060200190929190803590602001909291905050506115f6565b604051808273ffffffffffffffffffffffffffffffffffffffff1673ffffffffffffffffffffffffffffffffffffffff16815260200191505060405180910390f35b61059d6004803603604081101561056757600080fd5b8101908080359060200190929190803573ffffffffffffffffffffffffffffffffffffffff169060200190929190505050611627565b604051808215151515815260200191505060405180910390f35b6105f9600480360360208110156105cd57600080fd5b81019080803573ffffffffffffffffffffffffffffffffffffffff169060200190929190505050611658565b604051808273ffffffffffffffffffffffffffffffffffffffff1673ffffffffffffffffffffffffffffffffffffffff16815260200191505060405180910390f35b61064361168b565b6040518082815260200191505060405180910390f35b61069b6004803603602081101561066f57600080fd5b81019080803573ffffffffffffffffffffffffffffffffffffffff169060200190929190505050611692565b604051808215151515815260200191505060405180910390f35b610701600480360360408110156106cb57600080fd5b81019080803573ffffffffffffffffffffffffffffffffffffffff169060200190929190803590602001909291905050506116b2565b604051808273ffffffffffffffffffffffffffffffffffffffff1673ffffffffffffffffffffffffffffffffffffffff16815260200191505060405180910390f35b61076f6004803603602081101561075957600080fd5b81019080803590602001909291905050506116fd565b6040518082815260200191505060405180910390f35b61078d611723565b6040518082815260200191505060405180910390f35b6107ab61175c565b6040518080602001828103825283818151815260200191508051906020019060200280838360005b838110156107ee5780820151818401526020810190506107d3565b505050509050019250505060405180910390f35b61084e6004803603604081101561081857600080fd5b8101908080359060200190929190803573ffffffffffffffffffffffffffffffffffffffff1690602001909291905050506117ea565b005b6108926004803603602081101561086657600080fd5b81019080803573ffffffffffffffffffffffffffffffffffffffff169060200190929190505050611873565b6040518080602001828103825283818151815260200191508051906020019060200280838360005b838110156108d55780820151818401526020810190506108ba565b505050509050019250505060405180910390f35b61092b600480360360208110156108ff57600080fd5b81019080803573ffffffffffffffffffffffffffffffffffffffff169060200190929190505050611940565b005b6000806000905060008090505b600480549050811015610a5d5760006004828154811061095657fe5b9060005260206000200160009054906101000a900473ffffffffffffffffffffffffffffffffffffffff169050610a4d8173ffffffffffffffffffffffffffffffffffffffff1663414eff13876040518263ffffffff1660e01b8152600401808273ffffffffffffffffffffffffffffffffffffffff1673ffffffffffffffffffffffffffffffffffffffff16815260200191505060206040518083038186803b158015610a0357600080fd5b505afa158015610a17573d6000803e3d6000fd5b505050506040513d6020811015610a2d57600080fd5b810190808051906020019092919050505084611a6b90919063ffffffff16565b925050808060010191505061093a565b5080915050919050565b600560009054906101000a900473ffffffffffffffffffffffffffffffffffffffff1681565b610aa16000801b610a9c611af3565b611627565b610b13576040517f08c379a00000000000000000000000000000000000000000000000000000000081526004018080602001828103825260158152602001807f736574526566657272616c3a2062616420726f6c65000000000000000000000081525060200191505060405180910390fd5b60008090505b600480549050811015610cc55760048181548110610b3357fe5b9060005260206000200160009054906101000a900473ffffffffffffffffffffffffffffffffffffffff1673ffffffffffffffffffffffffffffffffffffffff168273ffffffffffffffffffffffffffffffffffffffff161415610cb85760006001600480549050039050808214610c335760048181548110610bb257fe5b9060005260206000200160009054906101000a900473ffffffffffffffffffffffffffffffffffffffff1660048381548110610bea57fe5b9060005260206000200160006101000a81548173ffffffffffffffffffffffffffffffffffffffff021916908373ffffffffffffffffffffffffffffffffffffffff1602179055505b6004805480610c3e57fe5b6001900381819060005260206000200160006101000a81549073ffffffffffffffffffffffffffffffffffffffff02191690559055610cb260405180807f524557415244535f524f4c450000000000000000000000000000000000000000815250600c0190506040518091039020846117ea565b50610cc5565b8080600101915050610b19565b5050565b6000806000838152602001908152602001600020600201549050919050565b610d0e60008084815260200190815260200160002060020154610d09611af3565b611627565b610d63576040517f08c379a000000000000000000000000000000000000000000000000000000000815260040180806020018281038252602f815260200180611f20602f913960400191505060405180910390fd5b610d6d8282611afb565b5050565b60608082604051908082528060200260200182016040528015610da35781602001602082028038833980820191505090505b509050600084905060008090505b84811015610e8257600160008373ffffffffffffffffffffffffffffffffffffffff1673ffffffffffffffffffffffffffffffffffffffff16815260200190815260200160002060009054906101000a900473ffffffffffffffffffffffffffffffffffffffff16838281518110610e2557fe5b602002602001019073ffffffffffffffffffffffffffffffffffffffff16908173ffffffffffffffffffffffffffffffffffffffff1681525050828181518110610e6b57fe5b602002602001015191508080600101915050610db1565b50819250505092915050565b610e96611af3565b73ffffffffffffffffffffffffffffffffffffffff168173ffffffffffffffffffffffffffffffffffffffff1614610f19576040517f08c379a000000000000000000000000000000000000000000000000000000000815260040180806020018281038252602f815260200180611fa3602f913960400191505060405180910390fd5b610f238282611b8e565b5050565b60048181548110610f3457fe5b906000526020600020016000915054906101000a900473ffffffffffffffffffffffffffffffffffffffff1681565b610fa960405180807f524557415244535f524f4c450000000000000000000000000000000000000000815250600c0190506040518091039020610fa4611af3565b611627565b61101b576040517f08c379a00000000000000000000000000000000000000000000000000000000081526004018080602001828103825260158152602001807f736574526566657272616c3a2062616420726f6c65000000000000000000000081525060200191505060405180910390fd5b600073ffffffffffffffffffffffffffffffffffffffff168273ffffffffffffffffffffffffffffffffffffffff1614156110be576040517f08c379a00000000000000000000000000000000000000000000000000000000081526004018080602001828103825260198152602001807f736574526566657272616c3a206261642072656665727265720000000000000081525060200191505060405180910390fd5b600260008373ffffffffffffffffffffffffffffffffffffffff1673ffffffffffffffffffffffffffffffffffffffff16815260200190815260200160002060009054906101000a900460ff1661138257600260008273ffffffffffffffffffffffffffffffffffffffff1673ffffffffffffffffffffffffffffffffffffffff16815260200190815260200160002060009054906101000a900460ff166111b1576040517f08c379a0000000000000000000000000000000000000000000000000000000008152600401808060200182810382526024815260200180611f7f6024913960400191505060405180910390fd5b80600160008473ffffffffffffffffffffffffffffffffffffffff1673ffffffffffffffffffffffffffffffffffffffff16815260200190815260200160002060006101000a81548173ffffffffffffffffffffffffffffffffffffffff021916908373ffffffffffffffffffffffffffffffffffffffff1602179055506001600260008473ffffffffffffffffffffffffffffffffffffffff1673ffffffffffffffffffffffffffffffffffffffff16815260200190815260200160002060006101000a81548160ff021916908315150217905550600360008273ffffffffffffffffffffffffffffffffffffffff1673ffffffffffffffffffffffffffffffffffffffff168152602001908152602001600020829080600181540180825580915050600190039060005260206000200160009091909190916101000a81548173ffffffffffffffffffffffffffffffffffffffff021916908373ffffffffffffffffffffffffffffffffffffffff1602179055508073ffffffffffffffffffffffffffffffffffffffff168273ffffffffffffffffffffffffffffffffffffffff167f3f6a300e641007b6c88b17485d36e2d83c20409a1c5e79bfa1f4eb69ea09469560405160405180910390a35b5050565b60008090505b600480549050811015611549576000600482815481106113a857fe5b9060005260206000200160009054906101000a900473ffffffffffffffffffffffffffffffffffffffff16905060008173ffffffffffffffffffffffffffffffffffffffff1663414eff136113fb611af3565b6040518263ffffffff1660e01b8152600401808273ffffffffffffffffffffffffffffffffffffffff1673ffffffffffffffffffffffffffffffffffffffff16815260200191505060206040518083038186803b15801561145b57600080fd5b505afa15801561146f573d6000803e3d6000fd5b505050506040513d602081101561148557600080fd5b8101908080519060200190929190505050111561153b578073ffffffffffffffffffffffffffffffffffffffff166319aaff866114c0611af3565b6040518263ffffffff1660e01b8152600401808273ffffffffffffffffffffffffffffffffffffffff1673ffffffffffffffffffffffffffffffffffffffff168152602001915050600060405180830381600087803b15801561152257600080fd5b505af1158015611536573d6000803e3d6000fd5b505050505b50808060010191505061138c565b50565b6115606000801b61155b611af3565b611627565b6115d2576040517f08c379a00000000000000000000000000000000000000000000000000000000081526004018080602001828103825260158152602001807f6368616e676541646d696e3a2062616420726f6c65000000000000000000000081525060200191505060405180910390fd5b6115df6000801b82611c21565b6115f36000801b6115ee611af3565b610e8e565b50565b600061161f82600080868152602001908152602001600020600001611c2f90919063ffffffff16565b905092915050565b600061165082600080868152602001908152602001600020600001611c4990919063ffffffff16565b905092915050565b60016020528060005260406000206000915054906101000a900473ffffffffffffffffffffffffffffffffffffffff1681565b6000801b81565b60026020528060005260406000206000915054906101000a900460ff1681565b600360205281600052604060002081815481106116cb57fe5b906000526020600020016000915091509054906101000a900473ffffffffffffffffffffffffffffffffffffffff1681565b600061171c600080848152602001908152602001600020600001611c79565b9050919050565b60405180807f524557415244535f524f4c450000000000000000000000000000000000000000815250600c019050604051809103902081565b606060048054806020026020016040519081016040528092919081815260200182805480156117e057602002820191906000526020600020905b8160009054906101000a900473ffffffffffffffffffffffffffffffffffffffff1673ffffffffffffffffffffffffffffffffffffffff1681526020019060010190808311611796575b5050505050905090565b6118106000808481526020019081526020016000206002015461180b611af3565b611627565b611865576040517f08c379a0000000000000000000000000000000000000000000000000000000008152600401808060200182810382526030815260200180611f4f6030913960400191505060405180910390fd5b61186f8282611b8e565b5050565b6060600360008373ffffffffffffffffffffffffffffffffffffffff1673ffffffffffffffffffffffffffffffffffffffff16815260200190815260200160002080548060200260200160405190810160405280929190818152602001828054801561193457602002820191906000526020600020905b8160009054906101000a900473ffffffffffffffffffffffffffffffffffffffff1673ffffffffffffffffffffffffffffffffffffffff16815260200190600101908083116118ea575b50505050509050919050565b6119546000801b61194f611af3565b611627565b6119c6576040517f08c379a00000000000000000000000000000000000000000000000000000000081526004018080602001828103825260158152602001807f736574526566657272616c3a2062616420726f6c65000000000000000000000081525060200191505060405180910390fd5b611a0560405180807f524557415244535f524f4c450000000000000000000000000000000000000000815250600c019050604051809103902082611c21565b6004819080600181540180825580915050600190039060005260206000200160009091909190916101000a81548173ffffffffffffffffffffffffffffffffffffffff021916908373ffffffffffffffffffffffffffffffffffffffff16021790555050565b600080828401905083811015611ae9576040517f08c379a000000000000000000000000000000000000000000000000000000000815260040180806020018281038252601b8152602001807f536166654d6174683a206164646974696f6e206f766572666c6f77000000000081525060200191505060405180910390fd5b8091505092915050565b600033905090565b611b2281600080858152602001908152602001600020600001611c8e90919063ffffffff16565b15611b8a57611b2f611af3565b73ffffffffffffffffffffffffffffffffffffffff168173ffffffffffffffffffffffffffffffffffffffff16837f2f8788117e7eff1d82e926ec794901d17c78024a50270940304540a733656f0d60405160405180910390a45b5050565b611bb581600080858152602001908152602001600020600001611cbe90919063ffffffff16565b15611c1d57611bc2611af3565b73ffffffffffffffffffffffffffffffffffffffff168173ffffffffffffffffffffffffffffffffffffffff16837ff6391f5c32d9c69d2a47ea670b442974b53935d1edc7fd64eb21e047a839171b60405160405180910390a45b5050565b611c2b8282611afb565b5050565b6000611c3e8360000183611cee565b60001c905092915050565b6000611c71836000018373ffffffffffffffffffffffffffffffffffffffff1660001b611d71565b905092915050565b6000611c8782600001611d94565b9050919050565b6000611cb6836000018373ffffffffffffffffffffffffffffffffffffffff1660001b611da5565b905092915050565b6000611ce6836000018373ffffffffffffffffffffffffffffffffffffffff1660001b611e15565b905092915050565b600081836000018054905011611d4f576040517f08c379a0000000000000000000000000000000000000000000000000000000008152600401808060200182810382526022815260200180611efe6022913960400191505060405180910390fd5b826000018281548110611d5e57fe5b9060005260206000200154905092915050565b600080836001016000848152602001908152602001600020541415905092915050565b600081600001805490509050919050565b6000611db18383611d71565b611e0a578260000182908060018154018082558091505060019003906000526020600020016000909190919091505582600001805490508360010160008481526020019081526020016000208190555060019050611e0f565b600090505b92915050565b60008083600101600084815260200190815260200160002054905060008114611ef15760006001820390506000600186600001805490500390506000866000018281548110611e6057fe5b9060005260206000200154905080876000018481548110611e7d57fe5b9060005260206000200181905550600183018760010160008381526020019081526020016000208190555086600001805480611eb557fe5b60019003818190600052602060002001600090559055866001016000878152602001908152602001600020600090556001945050505050611ef7565b60009150505b9291505056fe456e756d657261626c655365743a20696e646578206f7574206f6620626f756e6473416363657373436f6e74726f6c3a2073656e646572206d75737420626520616e2061646d696e20746f206772616e74416363657373436f6e74726f6c3a2073656e646572206d75737420626520616e2061646d696e20746f207265766f6b65736574526566657272616c3a206e6f74207265676973746572656420726566657272616c416363657373436f6e74726f6c3a2063616e206f6e6c792072656e6f756e636520726f6c657320666f722073656c66a2646970667358221220c76f8ab984d1f52eba6f496ca61b5a20fade178a6651a492ee521926ebacb62b64736f6c63430006020033",
  "source": "pragma solidity ^0.6.0;\n\nimport \"@openzeppelin/contracts/access/AccessControl.sol\";\nimport \"./ReferralRewards.sol\";\nimport \"./Rewards.sol\";\n\ncontract ReferralTree is AccessControl {\n    using SafeMath for uint256;\n\n    event ReferralAdded(address indexed referrer, address indexed referral);\n\n    bytes32 public constant REWARDS_ROLE = keccak256(\"REWARDS_ROLE\"); // Role for those who allowed to mint new tokens\n\n    mapping(address => address) public referrals; // Referral addresses for each referrer\n    mapping(address => bool) public registered; // Map to ensure if the referrer is in the tree\n    mapping(address => address[]) public referrers; // List of referrer addresses for each referral\n    ReferralRewards[] public referralRewards; // Referral reward contracts that are allowed to modify the tree\n    address public treeRoot; // The root of the referral tree\n\n    /// @dev Constructor that initializes the most important configurations.\n    /// @param _treeRoot The root of the referral tree.\n    constructor(address _treeRoot) public AccessControl() {\n        treeRoot = _treeRoot;\n        registered[_treeRoot] = true;\n        _setupRole(DEFAULT_ADMIN_ROLE, _msgSender());\n    }\n\n    /// @dev Allows an admin to reanonce the DEFAULT_ADMIN_ROLE.\n    /// @param _newAdmin Address of the new admin.\n    function changeAdmin(address _newAdmin) public {\n        require(\n            hasRole(DEFAULT_ADMIN_ROLE, _msgSender()),\n            \"changeAdmin: bad role\"\n        );\n        _setupRole(DEFAULT_ADMIN_ROLE, _newAdmin);\n        renounceRole(DEFAULT_ADMIN_ROLE, _msgSender());\n    }\n\n    /// @dev Allows a farming contract to set the users referral.\n    /// @param _referrer Address of the referred user.\n    /// @param _referral Address of the refferal.\n    function setReferral(address _referrer, address _referral) public {\n        require(hasRole(REWARDS_ROLE, _msgSender()), \"setReferral: bad role\");\n        require(_referrer != address(0), \"setReferral: bad referrer\");\n        if (!registered[_referrer]) {\n            require(\n                registered[_referral],\n                \"setReferral: not registered referral\"\n            );\n            referrals[_referrer] = _referral;\n            registered[_referrer] = true;\n            referrers[_referral].push(_referrer);\n            emit ReferralAdded(_referrer, _referral);\n        }\n    }\n\n    /// @dev Allows an admin to remove the referral rewards contract from trusted list.\n    /// @param _referralRewards Contract that manages referral rewards.\n    function removeReferralReward(ReferralRewards _referralRewards) public {\n        require(\n            hasRole(DEFAULT_ADMIN_ROLE, _msgSender()),\n            \"setReferral: bad role\"\n        );\n        for (uint256 i = 0; i < referralRewards.length; i++) {\n            if (_referralRewards == referralRewards[i]) {\n                uint256 lastIndex = referralRewards.length - 1;\n                if (i != lastIndex) {\n                    referralRewards[i] = referralRewards[lastIndex];\n                }\n                referralRewards.pop();\n                revokeRole(REWARDS_ROLE, address(_referralRewards));\n                break;\n            }\n        }\n    }\n\n    /// @dev Allows an admin to add the referral rewards contract from trusted list.\n    /// @param _referralRewards Contract that manages referral rewards.\n    function addReferralReward(ReferralRewards _referralRewards) public {\n        require(\n            hasRole(DEFAULT_ADMIN_ROLE, _msgSender()),\n            \"setReferral: bad role\"\n        );\n        _setupRole(REWARDS_ROLE, address(_referralRewards));\n        referralRewards.push(_referralRewards);\n    }\n\n    /// @dev Allows a user to claim all the dividends in all trusted products.\n    function claimAllDividends() public {\n        for (uint256 i = 0; i < referralRewards.length; i++) {\n            ReferralRewards referralReward = referralRewards[i];\n            if (referralReward.getReferralReward(_msgSender()) > 0) {\n                referralReward.claimAllDividends(_msgSender());\n            }\n        }\n    }\n\n    /// @dev Returns user referrals up to the required depth.\n    /// @param _referrer Address of referrer.\n    /// @param _referDepth Number of referrals to be returned.\n    /// @return List of user referrals.\n    function getReferrals(address _referrer, uint256 _referDepth)\n        public\n        view\n        returns (address[] memory)\n    {\n        address[] memory referralsTree = new address[](_referDepth);\n        address referrer = _referrer;\n        for (uint256 i = 0; i < _referDepth; i++) {\n            referralsTree[i] = referrals[referrer];\n            referrer = referralsTree[i];\n        }\n        return referralsTree;\n    }\n\n    /// @dev Returns user referrals up to the required depth.\n    /// @param _referral Address of referral.\n    /// @return List of user referrers.\n    function getReferrers(address _referral)\n        public\n        view\n        returns (address[] memory)\n    {\n        return referrers[_referral];\n    }\n\n    /// @dev Returns total user's referral reward.\n    /// @param _user Address of the user.\n    /// @return Total user's referral reward.\n    function getUserReferralReward(address _user)\n        public\n        view\n        returns (uint256)\n    {\n        uint256 amount = 0;\n        for (uint256 i = 0; i < referralRewards.length; i++) {\n            ReferralRewards referralReward = referralRewards[i];\n            amount = amount.add(referralReward.getReferralReward(_user));\n        }\n        return amount;\n    }\n\n    /// @dev Returns trusted referral reward contracts.\n    /// @return List of trusted referral reward contracts.\n    function getReferralRewards()\n        public\n        view\n        returns (ReferralRewards[] memory)\n    {\n        return referralRewards;\n    }\n}\n",
  "sourcePath": "/Users/kstasi/Documents/side/dANT/contracts/ReferralTree.sol",
  "compiler": {
    "name": "solc",
    "version": "0.6.2+commit.bacdbe57.Emscripten.clang"
  },
  "schemaVersion": "3.3.3",
  "updatedAt": "2020-12-20T21:42:41.573Z",
  "networkType": "ethereum",
  "devdoc": {
    "methods": {
      "addReferralReward(address)": {
        "details": "Allows an admin to add the referral rewards contract from trusted list.",
        "params": {
          "_referralRewards": "Contract that manages referral rewards."
        }
      },
      "changeAdmin(address)": {
        "details": "Allows an admin to reanonce the DEFAULT_ADMIN_ROLE.",
        "params": {
          "_newAdmin": "Address of the new admin."
        }
      },
      "claimAllDividends()": {
        "details": "Allows a user to claim all the dividends in all trusted products."
      },
      "constructor": {
        "details": "Constructor that initializes the most important configurations.",
        "params": {
          "_treeRoot": "The root of the referral tree."
        }
      },
      "getReferralRewards()": {
        "details": "Returns trusted referral reward contracts.",
        "returns": {
          "_0": "List of trusted referral reward contracts."
        }
      },
      "getReferrals(address,uint256)": {
        "details": "Returns user referrals up to the required depth.",
        "params": {
          "_referDepth": "Number of referrals to be returned.",
          "_referrer": "Address of referrer."
        },
        "returns": {
          "_0": "List of user referrals."
        }
      },
      "getReferrers(address)": {
        "details": "Returns user referrals up to the required depth.",
        "params": {
          "_referral": "Address of referral."
        },
        "returns": {
          "_0": "List of user referrers."
        }
      },
      "getRoleAdmin(bytes32)": {
        "details": "Returns the admin role that controls `role`. See {grantRole} and {revokeRole}.     * To change a role's admin, use {_setRoleAdmin}."
      },
      "getRoleMember(bytes32,uint256)": {
        "details": "Returns one of the accounts that have `role`. `index` must be a value between 0 and {getRoleMemberCount}, non-inclusive.     * Role bearers are not sorted in any particular way, and their ordering may change at any point.     * WARNING: When using {getRoleMember} and {getRoleMemberCount}, make sure you perform all queries on the same block. See the following https://forum.openzeppelin.com/t/iterating-over-elements-on-enumerableset-in-openzeppelin-contracts/2296[forum post] for more information."
      },
      "getRoleMemberCount(bytes32)": {
        "details": "Returns the number of accounts that have `role`. Can be used together with {getRoleMember} to enumerate all bearers of a role."
      },
      "getUserReferralReward(address)": {
        "details": "Returns total user's referral reward.",
        "params": {
          "_user": "Address of the user."
        },
        "returns": {
          "_0": "Total user's referral reward."
        }
      },
      "grantRole(bytes32,address)": {
        "details": "Grants `role` to `account`.     * If `account` had not been already granted `role`, emits a {RoleGranted} event.     * Requirements:     * - the caller must have ``role``'s admin role."
      },
      "hasRole(bytes32,address)": {
        "details": "Returns `true` if `account` has been granted `role`."
      },
      "removeReferralReward(address)": {
        "details": "Allows an admin to remove the referral rewards contract from trusted list.",
        "params": {
          "_referralRewards": "Contract that manages referral rewards."
        }
      },
      "renounceRole(bytes32,address)": {
        "details": "Revokes `role` from the calling account.     * Roles are often managed via {grantRole} and {revokeRole}: this function's purpose is to provide a mechanism for accounts to lose their privileges if they are compromised (such as when a trusted device is misplaced).     * If the calling account had been granted `role`, emits a {RoleRevoked} event.     * Requirements:     * - the caller must be `account`."
      },
      "revokeRole(bytes32,address)": {
        "details": "Revokes `role` from `account`.     * If `account` had been granted `role`, emits a {RoleRevoked} event.     * Requirements:     * - the caller must have ``role``'s admin role."
      },
      "setReferral(address,address)": {
        "details": "Allows a farming contract to set the users referral.",
        "params": {
          "_referral": "Address of the refferal.",
          "_referrer": "Address of the referred user."
        }
      }
    }
  },
  "userdoc": {
    "methods": {}
  }
}