{
  "contractName": "ReferralRewards",
  "abi": [
    {
      "inputs": [
        {
          "internalType": "contract dANT",
          "name": "_token",
          "type": "address"
        },
        {
          "internalType": "contract ReferralTree",
          "name": "_referralTree",
          "type": "address"
        },
        {
          "internalType": "contract Rewards",
          "name": "_rewards",
          "type": "address"
        },
        {
          "internalType": "uint256[3]",
          "name": "_depositBounds",
          "type": "uint256[3]"
        },
        {
          "internalType": "uint256[3][3]",
          "name": "_depositRate",
          "type": "uint256[3][3]"
        },
        {
          "internalType": "uint256[3][3]",
          "name": "_stakingRate",
          "type": "uint256[3][3]"
        }
      ],
      "stateMutability": "nonpayable",
      "type": "constructor"
    },
    {
      "anonymous": false,
      "inputs": [
        {
          "indexed": true,
          "internalType": "address",
          "name": "previousOwner",
          "type": "address"
        },
        {
          "indexed": true,
          "internalType": "address",
          "name": "newOwner",
          "type": "address"
        }
      ],
      "name": "OwnershipTransferred",
      "type": "event"
    },
    {
      "anonymous": false,
      "inputs": [
        {
          "indexed": true,
          "internalType": "address",
          "name": "refferer",
          "type": "address"
        },
        {
          "indexed": true,
          "internalType": "address",
          "name": "refferal",
          "type": "address"
        },
        {
          "indexed": true,
          "internalType": "uint256",
          "name": "level",
          "type": "uint256"
        },
        {
          "indexed": false,
          "internalType": "uint256",
          "name": "amount",
          "type": "uint256"
        }
      ],
      "name": "ReferralDepositReward",
      "type": "event"
    },
    {
      "anonymous": false,
      "inputs": [
        {
          "indexed": true,
          "internalType": "address",
          "name": "user",
          "type": "address"
        },
        {
          "indexed": false,
          "internalType": "uint256",
          "name": "amount",
          "type": "uint256"
        }
      ],
      "name": "ReferralRewardPaid",
      "type": "event"
    },
    {
      "inputs": [],
      "name": "amtLevels",
      "outputs": [
        {
          "internalType": "uint256",
          "name": "",
          "type": "uint256"
        }
      ],
      "stateMutability": "view",
      "type": "function",
      "constant": true
    },
    {
      "inputs": [
        {
          "internalType": "uint256",
          "name": "",
          "type": "uint256"
        }
      ],
      "name": "depositBounds",
      "outputs": [
        {
          "internalType": "uint256",
          "name": "",
          "type": "uint256"
        }
      ],
      "stateMutability": "view",
      "type": "function",
      "constant": true
    },
    {
      "inputs": [
        {
          "internalType": "uint256",
          "name": "",
          "type": "uint256"
        },
        {
          "internalType": "uint256",
          "name": "",
          "type": "uint256"
        }
      ],
      "name": "depositRate",
      "outputs": [
        {
          "internalType": "uint256",
          "name": "",
          "type": "uint256"
        }
      ],
      "stateMutability": "view",
      "type": "function",
      "constant": true
    },
    {
      "inputs": [],
      "name": "owner",
      "outputs": [
        {
          "internalType": "address",
          "name": "",
          "type": "address"
        }
      ],
      "stateMutability": "view",
      "type": "function",
      "constant": true
    },
    {
      "inputs": [],
      "name": "referDepth",
      "outputs": [
        {
          "internalType": "uint256",
          "name": "",
          "type": "uint256"
        }
      ],
      "stateMutability": "view",
      "type": "function",
      "constant": true
    },
    {
      "inputs": [
        {
          "internalType": "address",
          "name": "",
          "type": "address"
        }
      ],
      "name": "referralReward",
      "outputs": [
        {
          "internalType": "uint256",
          "name": "reward",
          "type": "uint256"
        },
        {
          "internalType": "uint256",
          "name": "lastUpdate",
          "type": "uint256"
        },
        {
          "internalType": "uint256",
          "name": "depositHead",
          "type": "uint256"
        },
        {
          "internalType": "uint256",
          "name": "depositTail",
          "type": "uint256"
        }
      ],
      "stateMutability": "view",
      "type": "function",
      "constant": true
    },
    {
      "inputs": [],
      "name": "referralTree",
      "outputs": [
        {
          "internalType": "contract ReferralTree",
          "name": "",
          "type": "address"
        }
      ],
      "stateMutability": "view",
      "type": "function",
      "constant": true
    },
    {
      "inputs": [],
      "name": "renounceOwnership",
      "outputs": [],
      "stateMutability": "nonpayable",
      "type": "function"
    },
    {
      "inputs": [
        {
          "internalType": "uint256",
          "name": "",
          "type": "uint256"
        },
        {
          "internalType": "uint256",
          "name": "",
          "type": "uint256"
        }
      ],
      "name": "stakingRate",
      "outputs": [
        {
          "internalType": "uint256",
          "name": "",
          "type": "uint256"
        }
      ],
      "stateMutability": "view",
      "type": "function",
      "constant": true
    },
    {
      "inputs": [],
      "name": "token",
      "outputs": [
        {
          "internalType": "contract dANT",
          "name": "",
          "type": "address"
        }
      ],
      "stateMutability": "view",
      "type": "function",
      "constant": true
    },
    {
      "inputs": [
        {
          "internalType": "address",
          "name": "newOwner",
          "type": "address"
        }
      ],
      "name": "transferOwnership",
      "outputs": [],
      "stateMutability": "nonpayable",
      "type": "function"
    },
    {
      "inputs": [
        {
          "internalType": "uint256[3]",
          "name": "_depositBounds",
          "type": "uint256[3]"
        }
      ],
      "name": "setBounds",
      "outputs": [],
      "stateMutability": "nonpayable",
      "type": "function"
    },
    {
      "inputs": [
        {
          "internalType": "uint256[3][3]",
          "name": "_depositRate",
          "type": "uint256[3][3]"
        }
      ],
      "name": "setDepositRate",
      "outputs": [],
      "stateMutability": "nonpayable",
      "type": "function"
    },
    {
      "inputs": [
        {
          "internalType": "uint256[3][3]",
          "name": "_stakingRate",
          "type": "uint256[3][3]"
        }
      ],
      "name": "setStakingRate",
      "outputs": [],
      "stateMutability": "nonpayable",
      "type": "function"
    },
    {
      "inputs": [
        {
          "internalType": "address",
          "name": "_referrer",
          "type": "address"
        },
        {
          "internalType": "address",
          "name": "_referral",
          "type": "address"
        }
      ],
      "name": "setReferral",
      "outputs": [],
      "stateMutability": "nonpayable",
      "type": "function"
    },
    {
      "inputs": [
        {
          "internalType": "address",
          "name": "_referrer",
          "type": "address"
        },
        {
          "internalType": "uint256",
          "name": "_amount",
          "type": "uint256"
        }
      ],
      "name": "assessReferalDepositReward",
      "outputs": [],
      "stateMutability": "nonpayable",
      "type": "function"
    },
    {
      "inputs": [],
      "name": "claimDividends",
      "outputs": [],
      "stateMutability": "nonpayable",
      "type": "function"
    },
    {
      "inputs": [
        {
          "internalType": "address",
          "name": "_referral",
          "type": "address"
        }
      ],
      "name": "claimAllDividends",
      "outputs": [],
      "stateMutability": "nonpayable",
      "type": "function"
    },
    {
      "inputs": [
        {
          "internalType": "address",
          "name": "_referrer",
          "type": "address"
        },
        {
          "internalType": "uint256",
          "name": "_amount",
          "type": "uint256"
        }
      ],
      "name": "removeDepositReward",
      "outputs": [],
      "stateMutability": "nonpayable",
      "type": "function"
    },
    {
      "inputs": [
        {
          "internalType": "address",
          "name": "_user",
          "type": "address"
        }
      ],
      "name": "getReferralReward",
      "outputs": [
        {
          "internalType": "uint256",
          "name": "",
          "type": "uint256"
        }
      ],
      "stateMutability": "view",
      "type": "function",
      "constant": true
    },
    {
      "inputs": [
        {
          "internalType": "address",
          "name": "_user",
          "type": "address"
        }
      ],
      "name": "getReferral",
      "outputs": [
        {
          "internalType": "address",
          "name": "",
          "type": "address"
        }
      ],
      "stateMutability": "view",
      "type": "function",
      "constant": true
    },
    {
      "inputs": [
        {
          "internalType": "uint256",
          "name": "_referralStake",
          "type": "uint256"
        }
      ],
      "name": "getStakingRateRange",
      "outputs": [
        {
          "internalType": "uint256[3]",
          "name": "_rates",
          "type": "uint256[3]"
        }
      ],
      "stateMutability": "view",
      "type": "function",
      "constant": true
    },
    {
      "inputs": [
        {
          "internalType": "uint256[]",
          "name": "_referralStakes",
          "type": "uint256[]"
        }
      ],
      "name": "getDepositRate",
      "outputs": [
        {
          "internalType": "uint256[]",
          "name": "_rates",
          "type": "uint256[]"
        }
      ],
      "stateMutability": "view",
      "type": "function",
      "constant": true
    },
    {
      "inputs": [],
      "name": "getDepositBounds",
      "outputs": [
        {
          "internalType": "uint256[3]",
          "name": "",
          "type": "uint256[3]"
        }
      ],
      "stateMutability": "view",
      "type": "function",
      "constant": true
    },
    {
      "inputs": [],
      "name": "getStakingRates",
      "outputs": [
        {
          "internalType": "uint256[3][3]",
          "name": "",
          "type": "uint256[3][3]"
        }
      ],
      "stateMutability": "view",
      "type": "function",
      "constant": true
    },
    {
      "inputs": [],
      "name": "getDepositRates",
      "outputs": [
        {
          "internalType": "uint256[3][3]",
          "name": "",
          "type": "uint256[3][3]"
        }
      ],
      "stateMutability": "view",
      "type": "function",
      "constant": true
    },
    {
      "inputs": [
        {
          "internalType": "address",
          "name": "_user",
          "type": "address"
        }
      ],
      "name": "getReferralAmounts",
      "outputs": [
        {
          "internalType": "uint256[3]",
          "name": "",
          "type": "uint256[3]"
        }
      ],
      "stateMutability": "view",
      "type": "function",
      "constant": true
    }
  ],
  "bytecode": "0x60806040523480156200001157600080fd5b5060405162003c5f38038062003c5f83398181016040526200003791908101906200051f565b600062000049620001f260201b60201c565b9050806000806101000a81548173ffffffffffffffffffffffffffffffffffffffff021916908373ffffffffffffffffffffffffffffffffffffffff1602179055508073ffffffffffffffffffffffffffffffffffffffff16600073ffffffffffffffffffffffffffffffffffffffff167f8be0079c531659141344cd1fd0a4f28419497f9722a3daafe3b4186f6b6457e060405160405180910390a35085600160006101000a81548173ffffffffffffffffffffffffffffffffffffffff021916908373ffffffffffffffffffffffffffffffffffffffff16021790555084600260006101000a81548173ffffffffffffffffffffffffffffffffffffffff021916908373ffffffffffffffffffffffffffffffffffffffff1602179055508260049060036200017c929190620001fa565b50816007906003620001909291906200023f565b50806010906003620001a49291906200023f565b5083600360006101000a81548173ffffffffffffffffffffffffffffffffffffffff021916908373ffffffffffffffffffffffffffffffffffffffff16021790555050505050505062000730565b600033905090565b82600381019282156200022c579160200282015b828111156200022b5782518255916020019190600101906200020e565b5b5090506200023b919062000296565b5090565b8260038002810192821562000283579160200282015b82811115620002825782518290600362000271929190620002be565b509160200191906003019062000255565b5b50905062000292919062000303565b5090565b620002bb91905b80821115620002b75760008160009055506001016200029d565b5090565b90565b8260038101928215620002f0579160200282015b82811115620002ef578251825591602001919060010190620002d2565b5b509050620002ff919062000296565b5090565b6200033191905b808211156200032d576000818162000323919062000334565b506003016200030a565b5090565b90565b50600081556001016000815560010160009055565b600082601f8301126200035b57600080fd5b6003620003726200036c82620005e5565b620005b7565b915081838560608402820111156200038957600080fd5b60005b83811015620003bd5781620003a28882620003c7565b8452602084019350606083019250506001810190506200038c565b5050505092915050565b600082601f830112620003d957600080fd5b6003620003f0620003ea8262000608565b620005b7565b915081838560208402820111156200040757600080fd5b60005b838110156200043b578162000420888262000508565b8452602084019350602083019250506001810190506200040a565b5050505092915050565b600082601f8301126200045757600080fd5b60036200046e62000468826200062b565b620005b7565b915081838560208402820111156200048557600080fd5b60005b83811015620004b957816200049e888262000508565b84526020840193506020830192505060018101905062000488565b5050505092915050565b600081519050620004d481620006c8565b92915050565b600081519050620004eb81620006e2565b92915050565b6000815190506200050281620006fc565b92915050565b600081519050620005198162000716565b92915050565b60008060008060008061030087890312156200053a57600080fd5b60006200054a89828a01620004f1565b96505060206200055d89828a01620004c3565b95505060406200057089828a01620004da565b94505060606200058389828a0162000445565b93505060c06200059689828a0162000349565b9250506101e0620005aa89828a0162000349565b9150509295509295509295565b6000604051905081810181811067ffffffffffffffff82111715620005db57600080fd5b8060405250919050565b600067ffffffffffffffff821115620005fd57600080fd5b602082029050919050565b600067ffffffffffffffff8211156200062057600080fd5b602082029050919050565b600067ffffffffffffffff8211156200064357600080fd5b602082029050919050565b60006200065b826200069e565b9050919050565b60006200066f826200064e565b9050919050565b600062000683826200064e565b9050919050565b600062000697826200064e565b9050919050565b600073ffffffffffffffffffffffffffffffffffffffff82169050919050565b6000819050919050565b620006d38162000662565b8114620006df57600080fd5b50565b620006ed8162000676565b8114620006f957600080fd5b50565b62000707816200068a565b81146200071357600080fd5b50565b6200072181620006be565b81146200072d57600080fd5b50565b61351f80620007406000396000f3fe608060405234801561001057600080fd5b50600436106101a95760003560e01c8063715018a6116100f9578063ab4f7a7a11610097578063e7e2fe1911610071578063e7e2fe19146104bd578063f2fde38b146104db578063f3c13a12146104f7578063fc0c546a14610527576101a9565b8063ab4f7a7a14610455578063ad35710114610471578063c72b50fd146104a1576101a9565b80638da5cb5b116100d35780638da5cb5b146103a757806393af7adc146103c5578063a6a9fcfa146103f5578063a7749d1c14610425576101a9565b8063715018a6146103515780637543e3f01461035b578063767bd4ba14610377576101a9565b80633a294ba31161016657806353d4e7f51161014057806353d4e7f5146102d8578063668038e0146102f65780636dcc2b3a146103005780636e18b6db1461031e576101a9565b80633a294ba31461025c5780633b0f0f2f14610278578063414eff13146102a8576101a9565b80630b3cb9d2146101ae5780630d434226146101cc578063168b85cf146101e857806319aaff8614610204578063396fe62714610220578063397f66901461023e575b600080fd5b6101b6610545565b6040516101c3919061319b565b60405180910390f35b6101e660048036036101e1919081019061292d565b61054a565b005b61020260048036036101fd91908101906129d4565b61054e565b005b61021e6004803603610219919081019061289f565b6105f9565b005b6102286106ed565b604051610235919061302a565b60405180910390f35b610246610770565b6040516102539190613083565b60405180910390f35b610276600480360361027191908101906129aa565b610796565b005b610292600480360361028d919081019061289f565b610841565b60405161029f9190612f9b565b60405180910390f35b6102c260048036036102bd919081019061289f565b6108f5565b6040516102cf919061319b565b60405180910390f35b6102e0610c3c565b6040516102ed919061302a565b60405180910390f35b6102fe610cbf565b005b610308610cca565b604051610315919061319b565b60405180910390f35b6103386004803603610333919081019061289f565b610ccf565b60405161034894939291906131b6565b60405180910390f35b610359610cff565b005b610375600480360361037091908101906128f1565b610e54565b005b610391600480360361038c9190810190612a7f565b610f77565b60405161039e919061319b565b60405180910390f35b6103af610f8f565b6040516103bc9190612f9b565b60405180910390f35b6103df60048036036103da9190810190612a7f565b610fb8565b6040516103ec9190613046565b60405180910390f35b61040f600480360361040a919081019061289f565b61104d565b60405161041c9190613046565b60405180910390f35b61043f600480360361043a91908101906129fd565b611123565b60405161044c9190613061565b60405180910390f35b61046f600480360361046a919081019061292d565b6111fa565b005b61048b60048036036104869190810190612ad1565b61177a565b604051610498919061319b565b60405180910390f35b6104bb60048036036104b691908101906129aa565b6117a2565b005b6104c561184d565b6040516104d29190613046565b60405180910390f35b6104f560048036036104f0919081019061289f565b611898565b005b610511600480360361050c9190810190612ad1565b611a5c565b60405161051e919061319b565b60405180910390f35b61052f611a84565b60405161053c919061309e565b60405180910390f35b600381565b5050565b610556611aaa565b73ffffffffffffffffffffffffffffffffffffffff166000809054906101000a900473ffffffffffffffffffffffffffffffffffffffff1673ffffffffffffffffffffffffffffffffffffffff16146105e4576040517f08c379a00000000000000000000000000000000000000000000000000000000081526004016105db9061313b565b60405180910390fd5b8060049060036105f5929190612345565b5050565b600260009054906101000a900473ffffffffffffffffffffffffffffffffffffffff1673ffffffffffffffffffffffffffffffffffffffff163373ffffffffffffffffffffffffffffffffffffffff1614806106a25750600360009054906101000a900473ffffffffffffffffffffffffffffffffffffffff1673ffffffffffffffffffffffffffffffffffffffff163373ffffffffffffffffffffffffffffffffffffffff16145b6106e1576040517f08c379a00000000000000000000000000000000000000000000000000000000081526004016106d89061315b565b60405180910390fd5b6106ea81611ab2565b50565b6106f5612385565b6010600380602002604051908101604052809291906000905b8282101561076757838260030201600380602002604051908101604052809291908260038015610753576020028201915b81548152602001906001019080831161073f575b50505050508152602001906001019061070e565b50505050905090565b600260009054906101000a900473ffffffffffffffffffffffffffffffffffffffff1681565b61079e611aaa565b73ffffffffffffffffffffffffffffffffffffffff166000809054906101000a900473ffffffffffffffffffffffffffffffffffffffff1673ffffffffffffffffffffffffffffffffffffffff161461082c576040517f08c379a00000000000000000000000000000000000000000000000000000000081526004016108239061313b565b60405180910390fd5b80601090600361083d9291906123b2565b5050565b6000600260009054906101000a900473ffffffffffffffffffffffffffffffffffffffff1673ffffffffffffffffffffffffffffffffffffffff16639ca423b3836040518263ffffffff1660e01b815260040161089e9190612f9b565b60206040518083038186803b1580156108b657600080fd5b505afa1580156108ca573d6000803e3d6000fd5b505050506040513d601f19601f820116820180604052506108ee91908101906128c8565b9050919050565b600080601960008473ffffffffffffffffffffffffffffffffffffffff1673ffffffffffffffffffffffffffffffffffffffff16815260200190815260200160002090506000600360009054906101000a900473ffffffffffffffffffffffffffffffffffffffff1673ffffffffffffffffffffffffffffffffffffffff16634f41e95d6040518163ffffffff1660e01b815260040160206040518083038186803b1580156109a357600080fd5b505afa1580156109b7573d6000803e3d6000fd5b505050506040513d601f19601f820116820180604052506109db9190810190612aa8565b90506000600360009054906101000a900473ffffffffffffffffffffffffffffffffffffffff1673ffffffffffffffffffffffffffffffffffffffff16631b1ace25866040518263ffffffff1660e01b8152600401610a3a9190612f9b565b60206040518083038186803b158015610a5257600080fd5b505afa158015610a66573d6000803e3d6000fd5b505050506040513d601f19601f82011682018060405250610a8a9190810190612aa8565b9050610a94612402565b610a9d82610fb8565b90506000846000015490506000856002015490505b8560030154811015610c1457610ac6612424565b8660070160008381526020019081526020016000206040518060a00160405290816000820160009054906101000a900473ffffffffffffffffffffffffffffffffffffffff1673ffffffffffffffffffffffffffffffffffffffff1673ffffffffffffffffffffffffffffffffffffffff1681526020016001820154815260200160028201548152602001600382015481526020016004820154815250509050610c04610bf5670de0b6b3a7640000610be787856020015160038110610b8857fe5b6020020151610bd98b610bcb8860400151610bbd8a60800151610baf428d60600151611c4c565b611c6590919063ffffffff16565b611caf90919063ffffffff16565b611caf90919063ffffffff16565b611caf90919063ffffffff16565b611d1f90919063ffffffff16565b84611d6990919063ffffffff16565b9250508080600101915050610ab2565b50610c30670de0b6b3a764000082611d1f90919063ffffffff16565b95505050505050919050565b610c44612385565b6007600380602002604051908101604052809291906000905b82821015610cb657838260030201600380602002604051908101604052809291908260038015610ca2576020028201915b815481526020019060010190808311610c8e575b505050505081526020019060010190610c5d565b50505050905090565b610cc833611ab2565b565b600381565b60196020528060005260406000206000915090508060000154908060010154908060020154908060030154905084565b610d07611aaa565b73ffffffffffffffffffffffffffffffffffffffff166000809054906101000a900473ffffffffffffffffffffffffffffffffffffffff1673ffffffffffffffffffffffffffffffffffffffff1614610d95576040517f08c379a0000000000000000000000000000000000000000000000000000000008152600401610d8c9061313b565b60405180910390fd5b600073ffffffffffffffffffffffffffffffffffffffff166000809054906101000a900473ffffffffffffffffffffffffffffffffffffffff1673ffffffffffffffffffffffffffffffffffffffff167f8be0079c531659141344cd1fd0a4f28419497f9722a3daafe3b4186f6b6457e060405160405180910390a360008060006101000a81548173ffffffffffffffffffffffffffffffffffffffff021916908373ffffffffffffffffffffffffffffffffffffffff160217905550565b600360009054906101000a900473ffffffffffffffffffffffffffffffffffffffff1673ffffffffffffffffffffffffffffffffffffffff163373ffffffffffffffffffffffffffffffffffffffff1614610ee4576040517f08c379a0000000000000000000000000000000000000000000000000000000008152600401610edb9061317b565b60405180910390fd5b600260009054906101000a900473ffffffffffffffffffffffffffffffffffffffff1673ffffffffffffffffffffffffffffffffffffffff16637543e3f083836040518363ffffffff1660e01b8152600401610f41929190612fb6565b600060405180830381600087803b158015610f5b57600080fd5b505af1158015610f6f573d6000803e3d6000fd5b505050505050565b60048160038110610f8457fe5b016000915090505481565b60008060009054906101000a900473ffffffffffffffffffffffffffffffffffffffff16905090565b610fc0612402565b60008090505b60038110156110465760048160038110610fdc57fe5b015483106110395760108160038110610ff157fe5b6003020160038060200260405190810160405280929190826003801561102c576020028201915b815481526020019060010190808311611018575b5050505050915050611048565b8080600101915050610fc6565b505b919050565b611055612402565b61105d612469565b601960008473ffffffffffffffffffffffffffffffffffffffff1673ffffffffffffffffffffffffffffffffffffffff1681526020019081526020016000206040518060a0016040529081600082015481526020016001820154815260200160028201548152602001600382015481526020016004820160038060200260405190810160405280929190826003801561110b576020028201915b8154815260200190600101908083116110f7575b50505050508152505090508060800151915050919050565b606081516040519080825280602002602001820160405280156111555781602001602082028038833980820191505090505b50905060008090505b82518110156111f45760008090505b60038110156111e6576004816003811061118357fe5b015484838151811061119157fe5b6020026020010151106111d957600781600381106111ab57fe5b6003020182600381106111ba57fe5b01548383815181106111c857fe5b6020026020010181815250506111e6565b808060010191505061116d565b50808060010191505061115e565b50919050565b600360009054906101000a900473ffffffffffffffffffffffffffffffffffffffff1673ffffffffffffffffffffffffffffffffffffffff163373ffffffffffffffffffffffffffffffffffffffff161461128a576040517f08c379a00000000000000000000000000000000000000000000000000000000081526004016112819061317b565b60405180910390fd5b6060600260009054906101000a900473ffffffffffffffffffffffffffffffffffffffff1673ffffffffffffffffffffffffffffffffffffffff166332a00d8e8460036040518363ffffffff1660e01b81526004016112ea929190612fdf565b60006040518083038186803b15801561130257600080fd5b505afa158015611316573d6000803e3d6000fd5b505050506040513d6000823e3d601f19601f8201168201806040525061133f9190810190612969565b90506060600360009054906101000a900473ffffffffffffffffffffffffffffffffffffffff1673ffffffffffffffffffffffffffffffffffffffff1663be6b5c91836040518263ffffffff1660e01b815260040161139e9190613008565b60006040518083038186803b1580156113b657600080fd5b505afa1580156113ca573d6000803e3d6000fd5b505050506040513d6000823e3d601f19601f820116820180604052506113f39190810190612a3e565b9050606061140082611123565b905060008090505b835181101561177257600073ffffffffffffffffffffffffffffffffffffffff1684828151811061143557fe5b602002602001015173ffffffffffffffffffffffffffffffffffffffff16141561145e57611765565b60006019600086848151811061147057fe5b602002602001015173ffffffffffffffffffffffffffffffffffffffff1673ffffffffffffffffffffffffffffffffffffffff16815260200190815260200160002090506040518060a001604052808873ffffffffffffffffffffffffffffffffffffffff168152602001838152602001878152602001600360009054906101000a900473ffffffffffffffffffffffffffffffffffffffff1673ffffffffffffffffffffffffffffffffffffffff16630fb5a6b46040518163ffffffff1660e01b815260040160206040518083038186803b15801561154f57600080fd5b505afa158015611563573d6000803e3d6000fd5b505050506040513d601f19601f820116820180604052506115879190810190612aa8565b42018152602001428152508160070160008360030154815260200190815260200160002060008201518160000160006101000a81548173ffffffffffffffffffffffffffffffffffffffff021916908373ffffffffffffffffffffffffffffffffffffffff160217905550602082015181600101556040820151816002015560608201518160030155608082015181600401559050506116408682600401846003811061163057fe5b0154611d6990919063ffffffff16565b81600401836003811061164f57fe5b018190555061166c60018260030154611d6990919063ffffffff16565b8160030181905550600083838151811061168257fe5b602002602001015114156116965750611765565b60006116be8484815181106116a757fe5b602002602001015188611caf90919063ffffffff16565b90506000811115611762576116e0818360000154611d6990919063ffffffff16565b8260000181905550828684815181106116f557fe5b602002602001015173ffffffffffffffffffffffffffffffffffffffff168973ffffffffffffffffffffffffffffffffffffffff167f4fc64bb58b238ade3c987f7668ff5ada4fe2ffb713d8254fefaa0252a5ba564c84604051611759919061319b565b60405180910390a45b50505b8080600101915050611408565b505050505050565b6010826003811061178757fe5b60030201816003811061179657fe5b01600091509150505481565b6117aa611aaa565b73ffffffffffffffffffffffffffffffffffffffff166000809054906101000a900473ffffffffffffffffffffffffffffffffffffffff1673ffffffffffffffffffffffffffffffffffffffff1614611838576040517f08c379a000000000000000000000000000000000000000000000000000000000815260040161182f9061313b565b60405180910390fd5b8060079060036118499291906123b2565b5050565b611855612402565b600460038060200260405190810160405280929190826003801561188e576020028201915b81548152602001906001019080831161187a575b5050505050905090565b6118a0611aaa565b73ffffffffffffffffffffffffffffffffffffffff166000809054906101000a900473ffffffffffffffffffffffffffffffffffffffff1673ffffffffffffffffffffffffffffffffffffffff161461192e576040517f08c379a00000000000000000000000000000000000000000000000000000000081526004016119259061313b565b60405180910390fd5b600073ffffffffffffffffffffffffffffffffffffffff168173ffffffffffffffffffffffffffffffffffffffff16141561199e576040517f08c379a0000000000000000000000000000000000000000000000000000000008152600401611995906130db565b60405180910390fd5b8073ffffffffffffffffffffffffffffffffffffffff166000809054906101000a900473ffffffffffffffffffffffffffffffffffffffff1673ffffffffffffffffffffffffffffffffffffffff167f8be0079c531659141344cd1fd0a4f28419497f9722a3daafe3b4186f6b6457e060405160405180910390a3806000806101000a81548173ffffffffffffffffffffffffffffffffffffffff021916908373ffffffffffffffffffffffffffffffffffffffff16021790555050565b60078260038110611a6957fe5b600302018160038110611a7857fe5b01600091509150505481565b600160009054906101000a900473ffffffffffffffffffffffffffffffffffffffff1681565b600033905090565b611abb81611dbe565b6000601960008373ffffffffffffffffffffffffffffffffffffffff1673ffffffffffffffffffffffffffffffffffffffff16815260200190815260200160002090506000611b1f670de0b6b3a76400008360000154611d1f90919063ffffffff16565b90506000811115611c47576000611b47670de0b6b3a764000083611caf90919063ffffffff16565b9050611b60818460000154611c6590919063ffffffff16565b8360000181905550600160009054906101000a900473ffffffffffffffffffffffffffffffffffffffff1673ffffffffffffffffffffffffffffffffffffffff166340c10f1985846040518363ffffffff1660e01b8152600401611bc5929190612fdf565b600060405180830381600087803b158015611bdf57600080fd5b505af1158015611bf3573d6000803e3d6000fd5b505050508373ffffffffffffffffffffffffffffffffffffffff167f04b20935b234f45fda390d2df59d92b7bb8bed322d3bc8764e826cfff50007d583604051611c3d919061319b565b60405180910390a2505b505050565b6000818310611c5b5781611c5d565b825b905092915050565b6000611ca783836040518060400160405280601e81526020017f536166654d6174683a207375627472616374696f6e206f766572666c6f770000815250612289565b905092915050565b600080831415611cc25760009050611d19565b6000828402905082848281611cd357fe5b0414611d14576040517f08c379a0000000000000000000000000000000000000000000000000000000008152600401611d0b9061311b565b60405180910390fd5b809150505b92915050565b6000611d6183836040518060400160405280601a81526020017f536166654d6174683a206469766973696f6e206279207a65726f0000000000008152506122e4565b905092915050565b600080828401905083811015611db4576040517f08c379a0000000000000000000000000000000000000000000000000000000008152600401611dab906130fb565b60405180910390fd5b8091505092915050565b6000601960008373ffffffffffffffffffffffffffffffffffffffff1673ffffffffffffffffffffffffffffffffffffffff168152602001908152602001600020905042816001015410611e125750612286565b6000600360009054906101000a900473ffffffffffffffffffffffffffffffffffffffff1673ffffffffffffffffffffffffffffffffffffffff16634f41e95d6040518163ffffffff1660e01b815260040160206040518083038186803b158015611e7c57600080fd5b505afa158015611e90573d6000803e3d6000fd5b505050506040513d601f19601f82011682018060405250611eb49190810190612aa8565b90506000600360009054906101000a900473ffffffffffffffffffffffffffffffffffffffff1673ffffffffffffffffffffffffffffffffffffffff16631b1ace25856040518263ffffffff1660e01b8152600401611f139190612f9b565b60206040518083038186803b158015611f2b57600080fd5b505afa158015611f3f573d6000803e3d6000fd5b505050506040513d601f19601f82011682018060405250611f639190810190612aa8565b9050611f6d612402565b611f7682610fb8565b90506000846002015490505b846003015481101561227757611f96612424565b8560070160008381526020019081526020016000206040518060a00160405290816000820160009054906101000a900473ffffffffffffffffffffffffffffffffffffffff1673ffffffffffffffffffffffffffffffffffffffff1673ffffffffffffffffffffffffffffffffffffffff168152602001600182015481526020016002820154815260200160038201548152602001600482015481525050905060006120c4670de0b6b3a76400006120b68685602001516003811061205757fe5b60200201516120a88a61209a886040015161208c8a6080015161207e428d60600151611c4c565b611c6590919063ffffffff16565b611caf90919063ffffffff16565b611caf90919063ffffffff16565b611caf90919063ffffffff16565b611d1f90919063ffffffff16565b905060008111156120ef576120e6818860000154611d6990919063ffffffff16565b87600001819055505b4287600701600085815260200190815260200160002060040181905550428260600151101561226857866002015483146121e457866007016000886002015481526020019081526020016000208760070160008581526020019081526020016000206000820160009054906101000a900473ffffffffffffffffffffffffffffffffffffffff168160000160006101000a81548173ffffffffffffffffffffffffffffffffffffffff021916908373ffffffffffffffffffffffffffffffffffffffff160217905550600182015481600101556002820154816002015560038201548160030155600482015481600401559050505b86600701600088600201548152602001908152602001600020600080820160006101000a81549073ffffffffffffffffffffffffffffffffffffffff02191690556001820160009055600282016000905560038201600090556004820160009055505061225f60018860020154611d6990919063ffffffff16565b87600201819055505b50508080600101915050611f82565b50428460010181905550505050505b50565b60008383111582906122d1576040517f08c379a00000000000000000000000000000000000000000000000000000000081526004016122c891906130b9565b60405180910390fd5b5060008385039050809150509392505050565b6000808311829061232b576040517f08c379a000000000000000000000000000000000000000000000000000000000815260040161232291906130b9565b60405180910390fd5b50600083858161233757fe5b049050809150509392505050565b8260038101928215612374579160200282015b82811115612373578251825591602001919060010190612358565b5b509050612381919061249e565b5090565b60405180606001604052806003905b61239c6124c3565b8152602001906001900390816123945790505090565b826003800281019282156123f1579160200282015b828111156123f0578251829060036123e09291906124e5565b50916020019190600301906123c7565b5b5090506123fe9190612525565b5090565b6040518060600160405280600390602082028038833980820191505090505090565b6040518060a00160405280600073ffffffffffffffffffffffffffffffffffffffff168152602001600081526020016000815260200160008152602001600081525090565b6040518060a00160405280600081526020016000815260200160008152602001600081526020016124986124c3565b81525090565b6124c091905b808211156124bc5760008160009055506001016124a4565b5090565b90565b6040518060600160405280600390602082028038833980820191505090505090565b8260038101928215612514579160200282015b828111156125135782518255916020019190600101906124f8565b5b509050612521919061249e565b5090565b61254e91905b8082111561254a57600081816125419190612551565b5060030161252b565b5090565b90565b50600081556001016000815560010160009055565b600081359050612575816134bb565b92915050565b60008151905061258a816134bb565b92915050565b600082601f8301126125a157600080fd5b81516125b46125af82613228565b6131fb565b915081818352602084019350602081019050838560208402820111156125d957600080fd5b60005b8381101561260957816125ef888261257b565b8452602084019350602083019250506001810190506125dc565b5050505092915050565b600082601f83011261262457600080fd5b600361263761263282613250565b6131fb565b9150818385606084028201111561264d57600080fd5b60005b8381101561267d57816126638882612687565b845260208401935060608301925050600181019050612650565b5050505092915050565b600082601f83011261269857600080fd5b60036126ab6126a682613272565b6131fb565b915081838560208402820111156126c157600080fd5b60005b838110156126f157816126d78882612875565b8452602084019350602083019250506001810190506126c4565b5050505092915050565b600082601f83011261270c57600080fd5b600361271f61271a82613294565b6131fb565b9150818385602084028201111561273557600080fd5b60005b83811015612765578161274b8882612875565b845260208401935060208301925050600181019050612738565b5050505092915050565b600082601f83011261278057600080fd5b813561279361278e826132b6565b6131fb565b915081818352602084019350602081019050838560208402820111156127b857600080fd5b60005b838110156127e857816127ce8882612875565b8452602084019350602083019250506001810190506127bb565b5050505092915050565b600082601f83011261280357600080fd5b8151612816612811826132b6565b6131fb565b9150818183526020840193506020810190508385602084028201111561283b57600080fd5b60005b8381101561286b5781612851888261288a565b84526020840193506020830192505060018101905061283e565b5050505092915050565b600081359050612884816134d2565b92915050565b600081519050612899816134d2565b92915050565b6000602082840312156128b157600080fd5b60006128bf84828501612566565b91505092915050565b6000602082840312156128da57600080fd5b60006128e88482850161257b565b91505092915050565b6000806040838503121561290457600080fd5b600061291285828601612566565b925050602061292385828601612566565b9150509250929050565b6000806040838503121561294057600080fd5b600061294e85828601612566565b925050602061295f85828601612875565b9150509250929050565b60006020828403121561297b57600080fd5b600082015167ffffffffffffffff81111561299557600080fd5b6129a184828501612590565b91505092915050565b600061012082840312156129bd57600080fd5b60006129cb84828501612613565b91505092915050565b6000606082840312156129e657600080fd5b60006129f4848285016126fb565b91505092915050565b600060208284031215612a0f57600080fd5b600082013567ffffffffffffffff811115612a2957600080fd5b612a358482850161276f565b91505092915050565b600060208284031215612a5057600080fd5b600082015167ffffffffffffffff811115612a6a57600080fd5b612a76848285016127f2565b91505092915050565b600060208284031215612a9157600080fd5b6000612a9f84828501612875565b91505092915050565b600060208284031215612aba57600080fd5b6000612ac88482850161288a565b91505092915050565b60008060408385031215612ae457600080fd5b6000612af285828601612875565b9250506020612b0385828601612875565b9150509250929050565b6000612b198383612b55565b60208301905092915050565b6000612b318383612c7f565b60608301905092915050565b6000612b498383612f7d565b60208301905092915050565b612b5e816133f3565b82525050565b612b6d816133f3565b82525050565b6000612b7e8261331c565b612b88818561339f565b9350612b93836132de565b8060005b83811015612bc4578151612bab8882612b0d565b9750612bb68361335e565b925050600181019050612b97565b5085935050505092915050565b612bda81613327565b612be481846133b0565b9250612bef826132ee565b8060005b83811015612c20578151612c078782612b25565b9650612c128361336b565b925050600181019050612bf3565b505050505050565b612c318161333d565b612c3b81846133c6565b9250612c4682613302565b8060005b83811015612c77578151612c5e8782612b3d565b9650612c6983613385565b925050600181019050612c4a565b505050505050565b612c8881613332565b612c9281846133bb565b9250612c9d826132f8565b8060005b83811015612cce578151612cb58782612b3d565b9650612cc083613378565b925050600181019050612ca1565b505050505050565b6000612ce182613348565b612ceb81856133d1565b9350612cf68361330c565b8060005b83811015612d27578151612d0e8882612b3d565b9750612d1983613392565b925050600181019050612cfa565b5085935050505092915050565b612d3d8161342f565b82525050565b612d4c81613453565b82525050565b6000612d5d82613353565b612d6781856133e2565b9350612d77818560208601613477565b612d80816134aa565b840191505092915050565b6000612d986026836133e2565b91507f4f776e61626c653a206e6577206f776e657220697320746865207a65726f206160008301527f64647265737300000000000000000000000000000000000000000000000000006020830152604082019050919050565b6000612dfe601b836133e2565b91507f536166654d6174683a206164646974696f6e206f766572666c6f7700000000006000830152602082019050919050565b6000612e3e6021836133e2565b91507f536166654d6174683a206d756c7469706c69636174696f6e206f766572666c6f60008301527f77000000000000000000000000000000000000000000000000000000000000006020830152604082019050919050565b6000612ea46020836133e2565b91507f4f776e61626c653a2063616c6c6572206973206e6f7420746865206f776e65726000830152602082019050919050565b6000612ee4601b836133e2565b91507f636c61696d416c6c4469766964656e64733a2062616420726f6c6500000000006000830152602082019050919050565b6000612f246024836133e2565b91507f6173736573735265666572616c4465706f7369745265776172643a206261642060008301527f726f6c65000000000000000000000000000000000000000000000000000000006020830152604082019050919050565b612f8681613425565b82525050565b612f9581613425565b82525050565b6000602082019050612fb06000830184612b64565b92915050565b6000604082019050612fcb6000830185612b64565b612fd86020830184612b64565b9392505050565b6000604082019050612ff46000830185612b64565b6130016020830184612f8c565b9392505050565b600060208201905081810360008301526130228184612b73565b905092915050565b6000610120820190506130406000830184612bd1565b92915050565b600060608201905061305b6000830184612c28565b92915050565b6000602082019050818103600083015261307b8184612cd6565b905092915050565b60006020820190506130986000830184612d34565b92915050565b60006020820190506130b36000830184612d43565b92915050565b600060208201905081810360008301526130d38184612d52565b905092915050565b600060208201905081810360008301526130f481612d8b565b9050919050565b6000602082019050818103600083015261311481612df1565b9050919050565b6000602082019050818103600083015261313481612e31565b9050919050565b6000602082019050818103600083015261315481612e97565b9050919050565b6000602082019050818103600083015261317481612ed7565b9050919050565b6000602082019050818103600083015261319481612f17565b9050919050565b60006020820190506131b06000830184612f8c565b92915050565b60006080820190506131cb6000830187612f8c565b6131d86020830186612f8c565b6131e56040830185612f8c565b6131f26060830184612f8c565b95945050505050565b6000604051905081810181811067ffffffffffffffff8211171561321e57600080fd5b8060405250919050565b600067ffffffffffffffff82111561323f57600080fd5b602082029050602081019050919050565b600067ffffffffffffffff82111561326757600080fd5b602082029050919050565b600067ffffffffffffffff82111561328957600080fd5b602082029050919050565b600067ffffffffffffffff8211156132ab57600080fd5b602082029050919050565b600067ffffffffffffffff8211156132cd57600080fd5b602082029050602081019050919050565b6000819050602082019050919050565b6000819050919050565b6000819050919050565b6000819050919050565b6000819050602082019050919050565b600081519050919050565b600060039050919050565b600060039050919050565b600060039050919050565b600081519050919050565b600081519050919050565b6000602082019050919050565b6000602082019050919050565b6000602082019050919050565b6000602082019050919050565b6000602082019050919050565b600082825260208201905092915050565b600081905092915050565b600081905092915050565b600081905092915050565b600082825260208201905092915050565b600082825260208201905092915050565b60006133fe82613405565b9050919050565b600073ffffffffffffffffffffffffffffffffffffffff82169050919050565b6000819050919050565b600061343a82613441565b9050919050565b600061344c82613405565b9050919050565b600061345e82613465565b9050919050565b600061347082613405565b9050919050565b60005b8381101561349557808201518184015260208101905061347a565b838111156134a4576000848401525b50505050565b6000601f19601f8301169050919050565b6134c4816133f3565b81146134cf57600080fd5b50565b6134db81613425565b81146134e657600080fd5b5056fea264697066735822122061b31f9f5fe50f42c2b5d0362a0a776bec29d2a4388cf95714acf06ce9769a4564736f6c63430006020033",
  "source": "pragma solidity ^0.6.0;\npragma experimental ABIEncoderV2;\n\nimport \"@openzeppelin/contracts/math/SafeMath.sol\";\nimport \"@openzeppelin/contracts/math/Math.sol\";\nimport \"@openzeppelin/contracts/access/Ownable.sol\";\nimport \"./ReferralTree.sol\";\nimport \"./dANT.sol\";\n\ncontract ReferralRewards is Ownable {\n    using SafeMath for uint256;\n\n    event ReferralDepositReward(\n        address indexed refferer,\n        address indexed refferal,\n        uint256 indexed level,\n        uint256 amount\n    );\n    event ReferralRewardPaid(address indexed user, uint256 amount);\n\n    // Info of each deposit made by the referrer\n    struct DepositInfo {\n        address referrer; // Address of refferer who made this deposit\n        uint256 depth; // The level of the refferal\n        uint256 amount; // Amount of deposited LP tokens\n        uint256 time; // Wnen the deposit is ended\n        uint256 lastUpdatedTime; // Last time the referral claimed reward from the deposit\n    }\n    // Info of each referral\n    struct ReferralInfo {\n        uint256 reward; // Ammount of collected deposit rewards\n        uint256 lastUpdate; // Last time the referral claimed rewards\n        uint256 depositHead; // The start index in the deposit's list\n        uint256 depositTail; // The end index in the deposit's list\n        uint256[amtLevels] amounts; // Amounts that generate rewards on each referral level\n        mapping(uint256 => DepositInfo) deposits; // Deposits that generate reward for the referral\n    }\n\n    uint256 public constant amtLevels = 3; // Number of levels by total staked amount that determine referral reward's rate\n    uint256 public constant referDepth = 3; // Number of referral levels that can receive dividends\n\n    dANT public token; // Harvested token contract\n    ReferralTree public referralTree; // Contract with referral's tree\n    Rewards rewards; // Main farming contract\n\n    uint256[amtLevels] public depositBounds; // Limits of referral's stake used to determine the referral rate\n    uint256[referDepth][amtLevels] public depositRate; // Referral rates based on referral's deplth and stake received from deposit\n    uint256[referDepth][amtLevels] public stakingRate; // Referral rates based on referral's deplth and stake received from staking\n\n    mapping(address => ReferralInfo) public referralReward; // Info per each referral\n\n    /// @dev Constructor that initializes the most important configurations.\n    /// @param _token Token to be staked and harvested.\n    /// @param _referralTree Contract with referral's tree.\n    /// @param _rewards Main farming contract.\n    /// @param _depositBounds Limits of referral's stake used to determine the referral rate.\n    /// @param _depositRate Referral rates based on referral's deplth and stake received from deposit.\n    /// @param _stakingRate Referral rates based on referral's deplth and stake received from staking.\n    constructor(\n        dANT _token,\n        ReferralTree _referralTree,\n        Rewards _rewards,\n        uint256[amtLevels] memory _depositBounds,\n        uint256[referDepth][amtLevels] memory _depositRate,\n        uint256[referDepth][amtLevels] memory _stakingRate\n    ) public Ownable() {\n        token = _token;\n        referralTree = _referralTree;\n        depositBounds = _depositBounds;\n        depositRate = _depositRate;\n        stakingRate = _stakingRate;\n        rewards = _rewards;\n    }\n\n    /// @dev Allows an owner to update bounds.\n    /// @param _depositBounds Limits of referral's stake used to determine the referral rate.\n    function setBounds(uint256[amtLevels] memory _depositBounds)\n        public\n        onlyOwner\n    {\n        depositBounds = _depositBounds;\n    }\n\n    /// @dev Allows an owner to update deposit rates.\n    /// @param _depositRate Referral rates based on referral's deplth and stake received from deposit.\n    function setDepositRate(uint256[referDepth][amtLevels] memory _depositRate)\n        public\n        onlyOwner\n    {\n        depositRate = _depositRate;\n    }\n\n    /// @dev Allows an owner to update staking rates.\n    /// @param _stakingRate Referral rates based on referral's deplth and stake received from staking.\n    function setStakingRate(uint256[referDepth][amtLevels] memory _stakingRate)\n        public\n        onlyOwner\n    {\n        stakingRate = _stakingRate;\n    }\n\n    /// @dev Allows a farming contract to set user referral.\n    /// @param _referrer Address of the referred user.\n    /// @param _referral Address of the refferal.\n    function setReferral(address _referrer, address _referral) public {\n        require(\n            msg.sender == address(rewards),\n            \"assessReferalDepositReward: bad role\"\n        );\n        referralTree.setReferral(_referrer, _referral);\n    }\n\n    /// @dev Allows the main farming contract to assess referral deposit rewards.\n    /// @param _referrer Address of the referred user.\n    /// @param _amount Amount of new deposit.\n    function assessReferalDepositReward(address _referrer, uint256 _amount)\n        external\n        virtual\n    {\n        require(\n            msg.sender == address(rewards),\n            \"assessReferalDepositReward: bad role\"\n        );\n        address[] memory referrals = referralTree.getReferrals(\n            _referrer,\n            referDepth\n        );\n        uint256[] memory referralStakes = rewards.getReferralStakes(referrals);\n        uint256[] memory percents = getDepositRate(referralStakes);\n        for (uint256 level = 0; level < referrals.length; level++) {\n            if (referrals[level] == address(0)) {\n                continue;\n            }\n\n\n                ReferralInfo storage referralInfo\n             = referralReward[referrals[level]];\n            referralInfo.deposits[referralInfo.depositTail] = DepositInfo({\n                referrer: _referrer,\n                depth: level,\n                amount: _amount,\n                lastUpdatedTime: now,\n                time: now + rewards.duration()\n            });\n            referralInfo.amounts[level] = referralInfo.amounts[level].add(\n                _amount\n            );\n            referralInfo.depositTail = referralInfo.depositTail.add(1);\n            if (percents[level] == 0) {\n                continue;\n            }\n            uint256 depositReward = _amount.mul(percents[level]);\n            if (depositReward > 0) {\n                referralInfo.reward = referralInfo.reward.add(depositReward);\n                emit ReferralDepositReward(\n                    _referrer,\n                    referrals[level],\n                    level,\n                    depositReward\n                );\n            }\n        }\n    }\n\n    /// @dev Allows a user to claim his dividends.\n    function claimDividends() public {\n        claimUserDividends(msg.sender);\n    }\n\n    /// @dev Allows a referral tree to claim all the dividends.\n    /// @param _referral Address of user that claims his dividends.\n    function claimAllDividends(address _referral) public {\n        require(\n            msg.sender == address(referralTree) ||\n                msg.sender == address(rewards),\n            \"claimAllDividends: bad role\"\n        );\n        claimUserDividends(_referral);\n    }\n\n    /// @dev Allows to decrement staked amount that generates reward to the referrals.\n    /// @param _referrer Address of the referrer.\n    /// @param _amount Ammount of tokens to be withdrawn by referrer.\n    function removeDepositReward(address _referrer, uint256 _amount)\n        external\n        virtual\n    {}\n\n    /// @dev Update the staking referral reward for _user.\n    /// @param _user Address of the referral.\n    function accumulateReward(address _user) internal virtual {\n        ReferralInfo storage referralInfo = referralReward[_user];\n        if (referralInfo.lastUpdate >= now) {\n            return;\n        }\n        uint256 rewardPerSec = rewards.rewardPerSec();\n        uint256 referralStake = rewards.getReferralStake(_user);\n        uint256[referDepth] memory rates = getStakingRateRange(referralStake);\n        for (\n            uint256 i = referralInfo.depositHead;\n            i < referralInfo.depositTail;\n            i++\n        ) {\n            DepositInfo memory deposit = referralInfo.deposits[i];\n            uint256 reward = Math\n                .min(now, deposit.time)\n                .sub(deposit.lastUpdatedTime)\n                .mul(deposit.amount)\n                .mul(rewardPerSec)\n                .mul(rates[deposit.depth])\n                .div(1e18);\n            if (reward > 0) {\n                referralInfo.reward = referralInfo.reward.add(reward);\n            }\n            referralInfo.deposits[i].lastUpdatedTime = now;\n            if (deposit.time < now) {\n                if (i != referralInfo.depositHead) {\n                    referralInfo.deposits[i] = referralInfo\n                        .deposits[referralInfo.depositHead];\n                }\n                delete referralInfo.deposits[referralInfo.depositHead];\n                referralInfo.depositHead = referralInfo.depositHead.add(1);\n            }\n        }\n        referralInfo.lastUpdate = now;\n    }\n\n    /// @dev Asses and distribute claimed dividends.\n    /// @param _user Address of user that claims dividends.\n    function claimUserDividends(address _user) internal {\n        accumulateReward(_user);\n        ReferralInfo storage referralInfo = referralReward[_user];\n        uint256 amount = referralInfo.reward.div(1e18);\n        if (amount > 0) {\n            uint256 scaledReward = amount.mul(1e18);\n            referralInfo.reward = referralInfo.reward.sub(scaledReward);\n            token.mint(_user, amount);\n            emit ReferralRewardPaid(_user, amount);\n        }\n    }\n\n    /// @dev Returns referral reward.\n    /// @param _user Address of referral.\n    /// @return Referral reward.\n    function getReferralReward(address _user)\n        external\n        virtual\n        view\n        returns (uint256)\n    {\n        ReferralInfo storage referralInfo = referralReward[_user];\n        uint256 rewardPerSec = rewards.rewardPerSec();\n        uint256 referralStake = rewards.getReferralStake(_user);\n        uint256[referDepth] memory rates = getStakingRateRange(referralStake);\n        uint256 _reward = referralInfo.reward;\n        for (\n            uint256 i = referralInfo.depositHead;\n            i < referralInfo.depositTail;\n            i++\n        ) {\n            DepositInfo memory deposit = referralInfo.deposits[i];\n            _reward = _reward.add(\n                Math\n                    .min(now, deposit.time)\n                    .sub(deposit.lastUpdatedTime)\n                    .mul(deposit.amount)\n                    .mul(rewardPerSec)\n                    .mul(rates[deposit.depth])\n                    .div(1e18)\n            );\n        }\n        return _reward.div(1e18);\n    }\n\n    /// @dev Returns direct user referral.\n    /// @param _user Address of referrer.\n    /// @return Direct user referral.\n    function getReferral(address _user) public view returns (address) {\n        return referralTree.referrals(_user);\n    }\n\n    /// @dev Returns stakong rate for the spesific referral stake.\n    /// @param _referralStake Amount staked by referral.\n    /// @return _rates Array of stakong rates by referral level.\n    function getStakingRateRange(uint256 _referralStake)\n        public\n        view\n        returns (uint256[referDepth] memory _rates)\n    {\n        for (uint256 i = 0; i < depositBounds.length; i++) {\n            if (_referralStake >= depositBounds[i]) {\n                return stakingRate[i];\n            }\n        }\n    }\n\n    /// @dev Returns deposit rate based on the spesific referral stake and referral level.\n    /// @param _referralStakes Amounts staked by referrals.\n    /// @return _rates Array of deposit rates by referral level.\n    function getDepositRate(uint256[] memory _referralStakes)\n        public\n        view\n        returns (uint256[] memory _rates)\n    {\n        _rates = new uint256[](_referralStakes.length);\n        for (uint256 level = 0; level < _referralStakes.length; level++) {\n            for (uint256 j = 0; j < depositBounds.length; j++) {\n                if (_referralStakes[level] >= depositBounds[j]) {\n                    _rates[level] = depositRate[j][level];\n                    break;\n                }\n            }\n        }\n    }\n\n    /// @dev Returns limits of referral's stake used to determine the referral rate.\n    /// @return Array of deposit bounds.\n    function getDepositBounds()\n        public\n        view\n        returns (uint256[referDepth] memory)\n    {\n        return depositBounds;\n    }\n\n    /// @dev Returns referral rates based on referral's deplth and stake received from staking.\n    /// @return Array of staking rates.\n    function getStakingRates()\n        public\n        view\n        returns (uint256[referDepth][amtLevels] memory)\n    {\n        return stakingRate;\n    }\n\n    /// @dev Returns referral rates based on referral's deplth and stake received from deposit.\n    /// @return Array of deposit rates.\n    function getDepositRates()\n        public\n        view\n        returns (uint256[referDepth][amtLevels] memory)\n    {\n        return depositRate;\n    }\n\n    /// @dev Returns amounts that generate reward for referral bu levels.\n    /// @param _user Address of referral.\n    /// @return Returns amounts that generate reward for referral bu levels.\n    function getReferralAmounts(address _user)\n        public\n        view\n        returns (uint256[amtLevels] memory)\n    {\n        ReferralInfo memory referralInfo = referralReward[_user];\n        return referralInfo.amounts;\n    }\n}\n",
  "sourcePath": "/Users/kstasi/Documents/side/dANT/contracts/ReferralRewards.sol",
  "compiler": {
    "name": "solc",
    "version": "0.6.2+commit.bacdbe57.Emscripten.clang"
  },
  "schemaVersion": "3.3.3",
  "updatedAt": "2020-12-20T21:42:41.618Z",
  "networkType": "ethereum",
  "devdoc": {
    "methods": {
      "assessReferalDepositReward(address,uint256)": {
        "details": "Allows the main farming contract to assess referral deposit rewards.",
        "params": {
          "_amount": "Amount of new deposit.",
          "_referrer": "Address of the referred user."
        }
      },
      "claimAllDividends(address)": {
        "details": "Allows a referral tree to claim all the dividends.",
        "params": {
          "_referral": "Address of user that claims his dividends."
        }
      },
      "claimDividends()": {
        "details": "Allows a user to claim his dividends."
      },
      "constructor": {
        "details": "Constructor that initializes the most important configurations.",
        "params": {
          "_depositBounds": "Limits of referral's stake used to determine the referral rate.",
          "_depositRate": "Referral rates based on referral's deplth and stake received from deposit.",
          "_referralTree": "Contract with referral's tree.",
          "_rewards": "Main farming contract.",
          "_stakingRate": "Referral rates based on referral's deplth and stake received from staking.",
          "_token": "Token to be staked and harvested."
        }
      },
      "getDepositBounds()": {
        "details": "Returns limits of referral's stake used to determine the referral rate.",
        "returns": {
          "_0": "Array of deposit bounds."
        }
      },
      "getDepositRate(uint256[])": {
        "details": "Returns deposit rate based on the spesific referral stake and referral level.",
        "params": {
          "_referralStakes": "Amounts staked by referrals."
        },
        "returns": {
          "_rates": "Array of deposit rates by referral level."
        }
      },
      "getDepositRates()": {
        "details": "Returns referral rates based on referral's deplth and stake received from deposit.",
        "returns": {
          "_0": "Array of deposit rates."
        }
      },
      "getReferral(address)": {
        "details": "Returns direct user referral.",
        "params": {
          "_user": "Address of referrer."
        },
        "returns": {
          "_0": "Direct user referral."
        }
      },
      "getReferralAmounts(address)": {
        "details": "Returns amounts that generate reward for referral bu levels.",
        "params": {
          "_user": "Address of referral."
        },
        "returns": {
          "_0": "Returns amounts that generate reward for referral bu levels."
        }
      },
      "getReferralReward(address)": {
        "details": "Returns referral reward.",
        "params": {
          "_user": "Address of referral."
        },
        "returns": {
          "_0": "Referral reward."
        }
      },
      "getStakingRateRange(uint256)": {
        "details": "Returns stakong rate for the spesific referral stake.",
        "params": {
          "_referralStake": "Amount staked by referral."
        },
        "returns": {
          "_rates": "Array of stakong rates by referral level."
        }
      },
      "getStakingRates()": {
        "details": "Returns referral rates based on referral's deplth and stake received from staking.",
        "returns": {
          "_0": "Array of staking rates."
        }
      },
      "owner()": {
        "details": "Returns the address of the current owner."
      },
      "removeDepositReward(address,uint256)": {
        "details": "Allows to decrement staked amount that generates reward to the referrals.",
        "params": {
          "_amount": "Ammount of tokens to be withdrawn by referrer.",
          "_referrer": "Address of the referrer."
        }
      },
      "renounceOwnership()": {
        "details": "Leaves the contract without owner. It will not be possible to call `onlyOwner` functions anymore. Can only be called by the current owner.     * NOTE: Renouncing ownership will leave the contract without an owner, thereby removing any functionality that is only available to the owner."
      },
      "setBounds(uint256[3])": {
        "details": "Allows an owner to update bounds.",
        "params": {
          "_depositBounds": "Limits of referral's stake used to determine the referral rate."
        }
      },
      "setDepositRate(uint256[3][3])": {
        "details": "Allows an owner to update deposit rates.",
        "params": {
          "_depositRate": "Referral rates based on referral's deplth and stake received from deposit."
        }
      },
      "setReferral(address,address)": {
        "details": "Allows a farming contract to set user referral.",
        "params": {
          "_referral": "Address of the refferal.",
          "_referrer": "Address of the referred user."
        }
      },
      "setStakingRate(uint256[3][3])": {
        "details": "Allows an owner to update staking rates.",
        "params": {
          "_stakingRate": "Referral rates based on referral's deplth and stake received from staking."
        }
      },
      "transferOwnership(address)": {
        "details": "Transfers ownership of the contract to a new account (`newOwner`). Can only be called by the current owner."
      }
    }
  },
  "userdoc": {
    "methods": {}
  }
}